:100000000C945D000C9485000C9485000C94850084
:100010000C9485000C9485000C94950F0C9485002D
:100020000C9485000C9485000C9485000C9485003C
:100030000C9485000C9485000C9485000C9485002C
:100040000C94DC030C9485000C944C040C94260452
:100050000C9485000C9485000C9485000C9485000C
:100060000C9485000C94850000000008000201003B
:100070000003040700000000000000000000000072
:10008000250028002B0000000000240027002A0083
:10009000040404040404040402020202020203032E
:1000A0000303030301020408102040800102040836
:1000B0001020010204081020980F11241FBECFEF5A
:1000C000D8E0DEBFCDBF12E0A0E0B1E0EAE7F4E2A5
:1000D00002C005900D92AC31B107D9F723E0ACE135
:1000E000B2E001C01D92A336B207E1F710E0CDE502
:1000F000D0E004C02197FE010E942512CC35D10723
:10010000C9F70E94E30F0C943B120C94000090E09E
:10011000FC01EC55FF4F249180579F4FFC018491C7
:10012000882399F090E0880F991FFC01EA57FF4F50
:10013000A591B491FC01E458FF4F859194918FB73C
:10014000F894EC91E22BEC938FBF089590E0FC01C2
:10015000E859FF4F2491FC01EC55FF4F3491FC010D
:10016000E057FF4FE491EE23C9F0222339F023300A
:1001700001F1A8F4213019F1223029F1F0E0EE0F5D
:10018000FF1FE458FF4FA591B4918FB7F894EC91FD
:10019000611126C030953E233C938FBF08952730D0
:1001A000A9F02830C9F0243049F7809180008F7D74
:1001B00003C0809180008F7780938000DFCF84B56B
:1001C0008F7784BDDBCF84B58F7DFBCF8091B0006E
:1001D0008F778093B000D2CF8091B0008F7DF9CF20
:1001E0003E2BDACFAF92BF92CF92DF92EF92FF9287
:1001F0000F931F93CF93DF936C017B018B01040F4F
:10020000151FEB015E01AE18BF08C017D10759F0EA
:100210006991D601ED91FC910190F081E02DC6012C
:100220000995892B79F7C501DF91CF911F910F9126
:10023000FF90EF90DF90CF90BF90AF900895FC01BA
:10024000538D448D252F30E0842F90E0821B930B3B
:10025000541710F0CF96089501970895FC01918DE1
:10026000828D981761F0A28DAE0FBF2FB11D5D96E4
:100270008C91928D9F5F9F73928F90E008958FEF86
:100280009FEF0895FC01918D828D981731F0828D3A
:10029000E80FF11D858D90E008958FEF9FEF089591
:1002A000FC01918D228D892F90E0805C9F4F821BF5
:1002B00091098F73992708958AEB92E00E9450016B
:1002C00021E0892B09F420E0822F08950E945C012F
:1002D00081110C940000089580E090E0892B11F0CA
:1002E0000C9466010895FC01A48DA80FB92FB11DCF
:1002F000A35ABF4F2C91848D90E001968F7399275C
:10030000848FA689B7892C93A089B1898C91837039
:1003100080648C93938D848D981306C00288F38932
:10032000E02D80818F7D80830895EF92FF920F935F
:100330001F93CF93DF93EC0181E0888F9B8D8C8D91
:1003400098131AC0E889F989808185FF15C09FB785
:10035000F894EE89FF896083E889F9898081837048
:10036000806480839FBF81E090E0DF91CF911F91F7
:100370000F91FF90EF900895F62E0B8D10E00F5F18
:100380001F4F0F731127E02E8C8D8E110CC00FB6EE
:1003900007FCFACFE889F989808185FFF5CFCE0186
:1003A0000E947301F1CFEB8DEC0FFD2FF11DE35A8D
:1003B000FF4FF0829FB7F8940B8FEA89FB89808109
:1003C0008062CFCFCF93DF93EC01888D8823B9F083
:1003D000AA89BB89E889F9898C9185FD03C0808150
:1003E00086FD0DC00FB607FCF7CF8C9185FFF2CFCD
:1003F000808185FFEDCFCE010E947301E9CFDF91AF
:10040000CF910895259A2D9A0895CF93DF93FC01FB
:1004100001900020E9F73197AF01481B590BBC014F
:100420008AEB92E00E94F200EC0142E050E069E1C8
:1004300071E08AEB92E00E94F2008C0F9D1FDF9129
:10044000CF9108958CE191E00E94050260E08091D7
:1004500057030E94A60060E080915B030E94A60003
:1004600060E0809159030E94A60061E080915D03E5
:100470000E94A6000E94630B80912E0290912F0291
:100480000E94710B90E080E00E94D80BDBCF8EE3DE
:1004900091E00E94050260E0809157030E94A6004F
:1004A00061E080915B030E94A60060E080915903A7
:1004B0000E94A60060E080915D030E94A6000E9459
:1004C000630B80912C0290912D020E94710B90E0A1
:1004D00080E00E94D80BDBCF8FE591E00E940502FF
:1004E00060E0809157030E94A60061E080915B0369
:1004F0000E94A60060E0809159030E94A60061E07E
:1005000080915D030E94A6000E94630B80912A02E5
:1005100090912B020E94710B90E080E00E94D80B1A
:10052000DBCF83E791E00E94050260E080915703F2
:100530000E94A60060E080915B030E94A60060E03C
:1005400080915D030E94A60060E0809159030E94A3
:10055000A6000E94630B80912802909129020E94BC
:10056000710B90E080E00E94D80BDBCF8FE791E029
:100570000E94050260E0809157030E94A60060E09F
:1005800080915B030E94A60061E0809159030E9464
:10059000A60060E080915D030E94A6000E94630BAC
:1005A00080912602909127020E94710B90E080E0DA
:1005B0000E94D80BDBCF8AE991E00E94050261E03E
:1005C000809157030E94A60060E080915B030E9427
:1005D000A60060E0809159030E94A60060E080912F
:1005E0005D030E94A6000E94630B809124029091FB
:1005F00025020E94710B90E080E00E94D80BDBCFB7
:1006000084EB91E00E94050261E0809157030E9413
:10061000A60060E080915B030E94A60061E08091EB
:1006200059030E94A60060E080915D030E94A6002D
:100630000E94630B80912202909123020E94710B11
:1006400090E080E00E94D80BDBCF8DEC91E00E941F
:10065000050280912202909123020E94D80B809182
:100660002402909125020E94D80B8091260290913D
:1006700027020E94D80B80912802909129020E94A3
:10068000D80B80912A0290912B020E94D80B809166
:100690002C0290912D020E94D80B80912002909103
:1006A00021020E94710B90E080E00E94D80BCDCF18
:1006B0000F931F93EAEBF2E0A089B18982E08C935B
:1006C000A485B5851C92A685B7858FEC8C93108E7A
:1006D000A489B58986E08C93A289B3898C918061C5
:1006E0008C93A289B3898C9188608C93A289B389F9
:1006F0008C9180688C930288F389E02D80818F7DB6
:1007000080830EE212E021E042E350E06EED71E002
:1007100085E293E00E94700E00E212E021E042E3E5
:1007200050E069EE71E080E093E00E94700E02E21A
:1007300012E021E042E350E06BEF71E08BED92E0DC
:100740000E94700E04E212E021E042E350E065E016
:1007500072E086EB92E00E94700E06E212E021E069
:1007600042E350E060EF71E081E992E00E94700E98
:1007700008E212E021E042E350E066EF71E08CE62F
:1007800092E00E94700E0AE212E021E042E350E0A3
:1007900069EF71E087E492E00E94700E0CE212E0D3
:1007A00021E042E350E063E072E082E292E00E94E6
:1007B000700E1F910F9108951F920F920FB60F9216
:1007C00011242F933F938F939F93AF93BF93809167
:1007D0005D0290915E02A0915F02B0916002309143
:1007E0005C0223E0230F2D3758F50196A11DB11DA2
:1007F00020935C0280935D0290935E02A0935F025F
:10080000B09360028091580290915902A0915A02CF
:10081000B0915B020196A11DB11D80935802909387
:100820005902A0935A02B0935B02BF91AF919F917E
:100830008F913F912F910F900FBE0F901F901895A1
:1008400026E8230F0296A11DB11DD2CF1F920F9251
:100850000FB60F9211242F933F934F935F936F9393
:100860007F938F939F93AF93BF93EF93FF938AEB05
:1008700092E00E947301FF91EF91BF91AF919F9120
:100880008F917F916F915F914F913F912F910F9039
:100890000FBE0F901F9018951F920F920FB60F92D8
:1008A00011242F938F939F93EF93FF93E091CA02AC
:1008B000F091CB028081E091D002F091D10282FDD3
:1008C0001BC090818091D3028F5F8F732091D402DF
:1008D000821741F0E091D302F0E0E654FD4F958F8E
:1008E0008093D302FF91EF919F918F912F910F9061
:1008F0000FBE0F901F9018958081F4CFE091630296
:10090000F09164028081811107C08FEF9FEF909377
:100910005502809354020895E0916302F0916402BD
:100920000580F681E02D80819181F1CFCF93DF9317
:10093000DC011596ED91FC910680F781E02DA489EC
:10094000B5898685978520893189EC013D832C8383
:10095000C089D1899B838A83CF010C9611962D91F2
:100960003C9112972817390721F41296DC93CE9305
:100970001197158A148A2C9121502C9320913302BF
:10098000211157C0A285B385848195812681378145
:10099000EC013D832C83C681D7819B838A83CF0161
:1009A000029611962D913C9112972817390721F440
:1009B0001296DC93CE931197138612862C912150B8
:1009C0002C93C6892091B6022C1710F4C093B6025E
:1009D00029E02C9FE0011124CE56DD4F0980DA81F9
:1009E000C02DD583C4834C815D8157834683AC8100
:1009F000BD8113969C938E9312979D838C83A689B9
:100A0000A29FD0011124AE56BD4FB387A2878C910F
:100A10008F5F8C93A0911C02B0911D02968956960F
:100A20008C91891730F581E080933202DF91CF916C
:100A30000895A0917802B0917902B787A68714969D
:100A40002D913C911597318B208B1496CD91DC9193
:100A500015979B838A8315969C938E93149787E7AB
:100A600092E0958B848B809177028F5F80937702E1
:100A7000D1CF80E0DBCF0FB6F8940F928091520275
:100A8000909153020F900FBE0895809133028F5FB3
:100A90008093330208950FB6F8940F92FC01928D63
:100AA0000F900FBE81E0911180E00895EF92FF92C8
:100AB0000F931F93CF93DF93EC010FB6F8940F922F
:100AC0001E8D7C0181E1E80EF11C01E01116D4F0CD
:100AD0008FEF8E8F0F900FBE0FB6F8940F921D8D73
:100AE0007E0188E0E80EF11C01E01116B4F08FEFF2
:100AF0008D8F0F900FBEDF91CF911F910F91FF90BF
:100B0000EF9008958989882319F3C7010E949604FC
:100B10008111009332021150D9CF8885882339F38F
:100B2000C7010E9496048111009332021150DDCF5B
:100B3000CF93DF93FC01A085B185828193812481CD
:100B40003581EC013D832C83C481D5819B838A83CD
:100B500011968D919C9112978E179F0721F41296F2
:100B6000DC93CE931197118610868C9181508C93D3
:100B70008C91DF91CF9108950F931F93CF93DF93C3
:100B80008C01FB0180819181D80113968F3F9807DA
:100B9000F1F4E801AF81B88512968D919C9113977D
:100BA00093838283EC01FD83EC83B583A483139646
:100BB000FC93EE93129711870087F80180818F5F75
:100BC0008083DF91CF911F910F910895D9011296E3
:100BD0002D913C911397E90148815981841795071C
:100BE000A8F7DACFFC017383628391878087461769
:100BF000570790F0421B530B84859585481759077A
:100C0000C8F4BF016E5F7F4F809138029091390226
:100C10000E94BC0580E008954217530718F462173C
:100C2000730740F4BF016E5F7F4F80913A0290914D
:100C30003B02EECF81E00895EF92FF920F931F9356
:100C4000CF93DF93EC018B017A016C857D85600F7A
:100C5000711F9801A701CE010E94F205811107C002
:100C6000DF91CF911F910F91FF90EF9008958C85A8
:100C70009D85080F191FE889F989CE010995E5CFEF
:100C8000EF92FF920F931F93CF93DF938C017B0121
:100C9000E0913A02F0913B020580F681E02DC68199
:100CA000D781CE0102960E9498058A8982FF0FC0E3
:100CB000A701B801CE010E941C06E889F989CE017E
:100CC000DF91CF911F910F91FF90EF9009948E7F4C
:100CD0008A8BF3CFE0913A02F0913B02808181113F
:100CE0000DC0809138029091390290933B0280931D
:100CF0003A02F0933902E093380208950580F681B4
:100D0000E02D6FEF7FEF808191810E944006E2CF5E
:100D1000FF920F931F93CF93DF93EC01F62E009178
:100D200052021091530280911C0290911D02029672
:100D30000E949805CF3FDC07E9F5FF20D9F1E0914B
:100D40006602F0916702A0911C02B0911D021596F7
:100D5000FC93EE931497A0911C02B0911D02848124
:100D6000958117969C938E93169780911C02909173
:100D70001D02A481B581029613969C938E931297BF
:100D800080911C0290911D02029695838483E091CC
:100D90001C02F0911D0285E692E093878287809184
:100DA00065028F5F80936502DF91CF911F910F9154
:100DB000FF900895C00FD11FE0911C02F0911D0219
:100DC000D383C28360911C0270911D02C017D107AA
:100DD00068F480916102909162026E5F7F4FDF91B3
:100DE000CF911F910F91FF900C94BC0580916302ED
:100DF000909164026E5F7F4F0E94BC058091540207
:100E000090915502C817D90778F6D0935502C09330
:100E10005402CACFFC010396928381832FEF3FEFE8
:100E200034832383968385839087878310820895F4
:100E30000F920FB6F8940F921F9211242F923F92A7
:100E40004F925F926F927F928F929F92AF92BF92DA
:100E5000CF92DF92EF92FF920F931F932F933F93C6
:100E60004F935F936F937F938F939F93AF93BF93B2
:100E7000CF93DF93EF93FF93A0911C02B0911D02DB
:100E80000DB60D920EB60D9213BE809133028111F4
:100E9000F9C08091520290915302019690935302AF
:100EA00080935202009781F5209163023091640291
:100EB0004091610250916202509364024093630238
:100EC0003093620220936102209137022F5F2093BA
:100ED0003702E0916302F09164022081211107C082
:100EE0002FEF3FEF30935502209354020DC0E09155
:100EF0006302F09164020580F681E02D208131814A
:100F0000309355022093540220915402309155029F
:100F10008217930710F420E0A1C020E039E0D32E1F
:100F2000E0916302F09164023081311107C08FEFCC
:100F30009FEF909355028093540290C0E09163021A
:100F4000F09164020580F681E02D0680F781E02DA6
:100F5000428153818417950728F45093550240939A
:100F600054027CC0A285B385448155816681778116
:100F7000EA017D836C8366817781EB015B834A8321
:100F8000AF014E5F5F4F11960D911C9112970417A0
:100F9000150721F412967C936E931197138612868F
:100FA0003C9131503C93A489B5891097F9F066853E
:100FB000778500891189EB011D830C8300891189D4
:100FC000E8017B836A831196ED90FC901297BF0134
:100FD000645F7F4FE616F70621F412961C930E937A
:100FE0001197158A148A3C9131503C93A68930910F
:100FF000B6023A1710F4A093B602DA9ED00111247B
:10100000AE56BD4F11960D90BC91A02DB583A48313
:1010100014966D917C9115977783668314966D91E4
:101020007C911597EB015B834A8315965C934E93F5
:10103000149746894D9DD0011124AE56BD4FB387FC
:10104000A2873C913F5F3C93E0911C02F0911D020E
:101050003689341708F064CF21E062CFE0911C029A
:10106000F0911D02E689D9E0ED9FF0011124EE56C2
:10107000FD4F8081823008F021E0809132028111A1
:101080000EC00AC080913002909131020196909377
:1010900031028093300268C0222309F465C0809138
:1010A0003302882321F081E0809332025DC01092E8
:1010B0003202A0911C02B0911D02E0911C02F0913D
:1010C0001D022D913C918789908D82179307A8F07E
:1010D00080911C0290911D0280911C0290911D0232
:1010E000259A2D9A2FEF87EA91E621508040904073
:1010F000E1F700C000001D9AF5CF2091B60289E00B
:1011000001C02150422F50E0849FF001859FF00DD7
:101110001124EE56FD4F9081992399F3A181B2815C
:1011200012966D917C9172836183289FC001112476
:101130008B569D4F6817790721F48581968192839C
:10114000818389E0849FF001859FF00D1124EE5684
:10115000FD4F0180F281E02D8681978190931D02E1
:1011600080931C022093B602A0911C02B0911D0234
:10117000CD91CDBFDD91DEBFFF91EF91DF91CF919A
:10118000BF91AF919F918F917F916F915F914F919F
:101190003F912F911F910F91FF90EF90DF90CF9093
:1011A000BF90AF909F908F907F906F905F904F9087
:1011B0003F902F901F900F900FBE0F9008950F92A9
:1011C0000FB6F8940F921F9211242F923F924F92D4
:1011D0005F926F927F928F929F92AF92BF92CF92C7
:1011E000DF92EF92FF920F931F932F933F934F93B2
:1011F0005F936F937F938F939F93AF93BF93CF939F
:10120000DF93EF93FF93A0911C02B0911D020DB6E6
:101210000D920EB60D9280913302882321F081E069
:10122000809332025DC010923202A0911C02B091F4
:101230001D02E0911C02F0911D022D913C918789C5
:10124000908D82179307A8F080911C0290911D0247
:1012500080911C0290911D02259A2D9A2FEF87EA0A
:1012600091E6215080409040E1F700C000001D9AB7
:10127000F5CF2091B60289E001C02150422F50E005
:10128000849FF001859FF00D1124EE56FD4F908153
:10129000992399F3A181B28112966D917C91728309
:1012A0006183289FC00111248B569D4F68177907D1
:1012B00021F4858196819283818389E0849FF00166
:1012C000859FF00D1124EE56FD4F0180F281E02D37
:1012D0008681978190931D0280931C022093B60211
:1012E000A0911C02B0911D02CD91CDBFDD91DEBF5A
:1012F000FF91EF91DF91CF91BF91AF919F918F912E
:101300007F916F915F914F913F912F911F910F911D
:10131000FF90EF90DF90CF90BF90AF909F908F9015
:101320007F906F905F904F903F902F901F900F9005
:101330000FBE0F9008958F929F92BF92CF92DF922F
:10134000EF92FF920F931F93CF93DF930FB6F89412
:101350000F92809133028150809333028091330247
:10136000882379F080E00F900FBEDF91CF911F911D
:101370000F91FF90EF90DF90CF90BF909F908F9054
:1013800008958091B902882369F3E0907C02F0907F
:101390007D02F0E0E0E039E041E0809177028111E8
:1013A0005EC0EF2B11F00E947E04E0903002F090BE
:1013B0003102E114F10409F47DC189E0D82ECC2476
:1013C000C3940FEF1FEF80913302811161C1C0916F
:1013D0005202D09153024E018FEF881A980A9092D0
:1013E00053028092520281149104B9F480916302F5
:1013F0009091640220916102309162023093640204
:10140000209363029093620280936102809137027D
:101410008F5F809337020E947E04809154029091E6
:101420005502B12C8816990608F026C1E0911C02DD
:10143000F0911D02E689DE9EF0011124EE56FD4F6B
:101440008081823010F0BB24B394809132028111EC
:1014500003C0BB2009F425C1C092320222C1D701CA
:101460001696ED91FC91A489B5896685778580896A
:101470009189EB019D838C8380899189EC017B8329
:101480006A83BF01645F7F4F11960D911C91129783
:101490000617170721F412969C938E931197158ABD
:1014A000148A8C9181508C93A285B3858481958117
:1014B00066817781EC017D836C8366817781EB01A6
:1014C0009B838A83CF01029611960D911C911297EE
:1014D0000817190721F412967C936E9311971386BF
:1014E00012862C9121502C93A6892091B6022A179E
:1014F00010F4A093B6023A9FD0011124AE56BD4F0E
:1015000011960D90BC91A02DB583A48314966D9176
:101510007C9115977783668314966D917C911597CE
:10152000EB019B838A8315969C938E9314979689DF
:10153000939FD0011124AE56BD4FB387A2878C91E3
:101540008F5F8C93A0911C02B0911D0256968C91D6
:10155000891708F022CF409332021FCFE091630237
:10156000F09164020580F681E02D0680F781E02D80
:10157000828193818816990628F49093550280936E
:10158000540254CFC285D3858481958126813781C9
:10159000DC0115963C932E93149726813781D9014F
:1015A00013969C938E931297CF01029649815A818C
:1015B0004817590711F43A83298313861286288124
:1015C00021502883A489B5891097F9F0268537859D
:1015D00040895189E9015D834C8340895189EA0141
:1015E0003B832A8311966D917C9112979F01245F12
:1015F0003F4F6217730721F412965C934E93119735
:10160000158A148A2C9121502C93A6892091B60218
:101610002A1710F4A093B602DA9ED0011124AE5618
:10162000BD4F11960D90BC91A02DB583A483149647
:101630002D913C9115973783268314962D913C91DB
:101640001597E9019B838A8315969C938E93149733
:1016500096899D9DD0011124AE56BD4FB387A287B8
:101660008C918F5F8C93E0911C02F0911D02868912
:10167000891710F4BB24B394E0916302F0916402E3
:10168000808181116BCF1093550200935402CECE0E
:1016900080913002909131020196909331028093B3
:1016A0003002D1E0ED1AF10809F08DCE109231022E
:1016B0001092300280913202882309F453CE0E94A6
:1016C000DF0881E050CE0E94450560E088E390E0AD
:1016D0000E9488060E949B09811102C00E94DF08B7
:1016E00008950F931F93CF93DF93EC0180911C0219
:1016F00090911D028C179D0709F455C0209709F49D
:1017000052C00FB6F8940F928A859B8585569240F9
:1017100009F047C08C899D89E2E087379E0709F46C
:1017200040C0892BF1F58E010E5F1F4FC8010E944A
:101730009805AE898091B6028A1710F4A093B6027C
:1017400029E02A9FD0011124AE56BD4F11960D906D
:10175000BC91A02DBD83AC8314968D919C9115975F
:101760009F838E8314968D919C911597FC01138312
:10177000028315961C930E9314979E89929FF001F5
:101780001124EE56FD4FFB87EA8780818F5F8083AF
:10179000E0911C02F0911D028689891710F40E94C5
:1017A000DF080F900FBEDF91CF911F910F91089529
:1017B0000F931F93CF93DF93EC010FB6F8940F9222
:1017C000892B21F4C0911C02D0911D028E010E5F65
:1017D0001F4FC8010E9498058C899D89892B21F093
:1017E000CE010C960E949805E0916602F091670286
:1017F000FD83EC83848195819F838E83A481B58151
:1018000013961C930E9312971583048385E692E03A
:101810009B878A87809165028F5F809365028FA185
:10182000813009F41FA20F900FBE8091B802882367
:1018300039F00FB6F8940F920E947E040F900FBEFD
:1018400080911C0290911D028C179D0731F48091AC
:10185000B802882339F00E94DF08DF91CF911F91F1
:101860000F910895909165028091B902981305C077
:1018700010921D0210921C02F0CF80913302882337
:1018800021F081E080933202E8CF10923202A091E1
:101890001C02B0911D02E0911C02F0911D022D91DD
:1018A0003C918789908D82179307A8F080911C0244
:1018B00090911D0280911C0290911D020E940202D3
:1018C0002FEF87EA91E6215080409040E1F700C079
:1018D00000001D9AF5CF2091B60289E0422F50E01A
:1018E000849FF001859FF00D1124EE56FD4F9081ED
:1018F000992339F1A181B28112966D917C91728305
:101900006183289FC00111248B569D4F681779076A
:1019100021F4858196819283818389E0849FF001FF
:10192000859FF00D1124EE56FD4F0180F281E02DD0
:101930008681978190931D0280931C022093B602AA
:101940008CCF2150CBCFCF93DF93009751F0EC0198
:101950000E944505CE010E949C11DF91CF910C940D
:101960009B09DF91CF910895CF93DF9300D000D0F2
:101970001F92CDB7DEB7E0913A02F0913B021081A1
:10198000F12CE12C112329F00580F681E02DE08077
:10199000F1800E9445050E943B056C018091350253
:1019A00090913602C816D90608F085C00E946A06D2
:1019B000D0923602C09235020E949B0900915002DB
:1019C000109151020FB6F8940F92D8015A96FC90DC
:1019D0005A97FF2009F430C15C964C915C974423E0
:1019E00001F150E016968D919C911797840F951FE9
:1019F00017969C938E93169714962D913C9115975C
:101A00008217930738F08D919C91119717969C93AC
:101A10008E931697F80166817781CE0101960E9418
:101A20002B12FA94D8015A96FC925A9718968C91D8
:101A3000882339F0C80108960E94960481110E94FB
:101A4000DF080F900FBED980D7FCB8CF0C811D8165
:101A5000D8011A968D919C91892B21F0C80102968C
:101A60000E9498050E943B057C018091350290916F
:101A70003602E816F90610F40E946A06F092360261
:101A8000E0923502EFEFED0DE93008F097CF0E2E22
:101A9000000CFF0BEE5AF24FD80152968C915297E0
:101AA0000C942512D50DD50D180E000E120ED50D65
:101AB000D50D180E000ED0923602C09235021123B9
:101AC00051F0CE14DF0470F00E949B09B601C701EB
:101AD0000E94400673CFE0913802F0913902808174
:101AE00061E0811160E000915002109151020FB647
:101AF000F8940F92D8015D968C915D978F3F11F409
:101B00005D961C92F801868D8F3F09F4168E0F901A
:101B10000FBED8015A968C915A9781113CC05296AB
:101B2000ED91FC91A0911C02B0911D021F96FC93B7
:101B3000EE931E97A0911C02B0911D0284819581A5
:101B400051969C938E93509780911C0290911D0208
:101B5000A481B5810C9613969C938E9312978091D5
:101B60001C0290911D020C9695838483E0911C02C7
:101B7000F0911D02C8014196958B848BF8018189F3
:101B80008F5F818BC7018C199D09662311F08FEF40
:101B90009FEF0E948806C8010E9456050E949B097B
:101BA00081110CCF0E94DF0809CF8160F801828B80
:101BB000CA80DB80648575856C0D7D1D9601A7014B
:101BC000C8010E94F205882309F4F8CED801529684
:101BD0008C91529782FF10C01C966D917C916C0D78
:101BE0007D1DA701C8010E941C06D8015096ED91E9
:101BF000FC91C8010995E2CE8E7FF801828BF5CF6A
:101C0000816052968C9352976A817B811D967C935A
:101C10006E931C976E0D7F1D9701A701C8010E944E
:101C2000F205CCCE81FD04C0C8010E94A30CC6CE33
:101C30008E7FF801828BC2CE0F900FBE9CCE00E04B
:101C400010E08091340281110CC0809192028230A8
:101C500010F00E94DF080115110599F30E9466013A
:101C6000F0CF0FB6F8940F92E0917302F0917402E6
:101C7000C681D781CE0102960E9498058091B90253
:101C800081508093B9028091340281508093340254
:101C90000F900FBE8F89988D0E94A30CCE010E94D9
:101CA000A30CCFCFCF93DF93EC010E944505CE016B
:101CB0000E940011EC010E949B09209769F40E9488
:101CC00002022FEF80E792E0215080409040E1F740
:101CD00000C000001D9AF5CFCE01DF91CF9108958D
:101CE0007F928F929F92AF92BF92CF92DF92EF92AC
:101CF000FF920F931F93CF93DF93982EA92E762EEA
:101D0000872E7A01B22ECA010E94520E6C01892BD5
:101D100009F4EAC088E290E00E94520EEC01892B9F
:101D200009F4DFC088E2DE011D928A95E9F7D88EBA
:101D3000CF8AA70165EA70E0C6010E943412B1E0C3
:101D4000EB1AF108EF89F88DEE0DFF1D672D782D48
:101D5000CE0149969B01285F3F4FDB014D91BD01AC
:101D6000DC014D93CD01AB0141505109DA014C9199
:101D7000442319F06217730781F718A2BE8AB9A22B
:101D80001B861A861D8A1C8AD987C88784E090E042
:101D90008B1991099D878C87DB8BCA8B9082DF0121
:101DA0001197AC9211971C92119780E88C93119720
:101DB0001C9257971C9211971C92B397F983E88352
:101DC000F801D183C0830FB6F8940F928091B902C5
:101DD0008F5F8093B90280911C0290911D02892B24
:101DE00009F091C0D0931D02C0931C028091B902EA
:101DF000813081F582E992E00E940A078BE992E046
:101E00000E940A0784EA92E00E940A078DEA92E0A3
:101E10000E940A0789E892E00E940A0780E892E09F
:101E20000E940A0787E792E00E940A078EE692E086
:101E30000E940A0785E692E00E940A0789E892E07C
:101E4000909364028093630280E892E09093620230
:101E5000809361028091B7028F5F8093B702AE8951
:101E60008091B6028A1710F4A093B60229E02A9F47
:101E7000D0011124AE56BD4F11960D90BC91A02DEE
:101E8000BD83AC8314968D919C9115979F838E830F
:101E90001496ED91FC911597CE010296938382835F
:101EA00015969C938E931497EE89E29FF00111246E
:101EB000EE56FD4FFB87EA8780818F5F80830F900E
:101EC0000FBE8091B802882351F0E0911C02F0917E
:101ED0001D0296898E89981710F40E94DF0881E010
:101EE00004C0C6010E94A30C8FEFDF91CF911F9118
:101EF0000F91FF90EF90DF90CF90BF90AF909F90A9
:101F00008F907F9008958091B8028111A3CFE091C6
:101F10001C02F0911D0296898E89891708F49ACFC8
:101F2000D0931D02C0931C0295CF0E9418071895EC
:101F3000EAEBF2E01382128288EE93E0A0E0B0E0D8
:101F400084839583A683B7838BE091E0918380831C
:101F500085EC90E09587848784EC90E0978786876E
:101F600080EC90E0918B808B81EC90E0938B828B66
:101F700082EC90E0958B848B86EC90E0978B868B3F
:101F8000118E128E138E148E83E00E94870086E0DD
:101F90000E94870085E00E94870089E00E948700F8
:101FA000E7E5F3E083E090E09183808386E090E0D2
:101FB0009383828385E090E09583848389E090E039
:101FC000978386830895789484B5826084BD84B5B0
:101FD000816084BD85B5826085BD85B5816085BD24
:101FE00080916E00816080936E00109281008091DC
:101FF0008100826080938100809181008160809364
:102000008100809180008160809380008091B10088
:1020100084608093B1008091B00081608093B000B3
:1020200080917A00846080937A0080917A00826047
:1020300080937A0080917A00816080937A00809109
:102040007A00806880937A001092C1002091050187
:10205000309106018FEF98E0821B930B9093020161
:10206000809301010E94580306E512E020E040EC55
:1020700050E06EE072E08FE19EE00E94700E8130D1
:1020800009F0B3C00FB6F8940F928091500290916E
:102090005102892B09F04FC085E492E00E940A07A3
:1020A0008CE392E00E940A0785E492E090933B0261
:1020B00080933A028CE392E0909339028093380245
:1020C00081E590E00E94520EEC01009781F14F965D
:1020D000998388838AE08B8F85E08C8F0FB6F89484
:1020E0000F92888199812B8D4C8DBC01249F600DAE
:1020F000711D11247D836C831A8E9B838A832150EA
:10210000330B429FB001439F700D1124860F971F20
:102110009F838E838FEF8D8F8E8FCE0108960E94C6
:102120000A07CE0141960E940A070F900FBED09376
:102130005102C09350020F900FBE809150029091B7
:102140005102892B09F451C00EE412E023E045E569
:1021500050E063E172E084EB9CE00E94700E8130FD
:1021600009F043C0F8942FEF3FEF309355022093CE
:1021700054028093B8021092530210925202A89512
:1021800088E190EC0FB6F894A895809360000FBE9C
:1021900090936000A0911C02B0911D02CD91CDBF23
:1021A000DD91DEBFFF91EF91DF91CF91BF91AF91B4
:1021B0009F918F917F916F915F914F913F912F915F
:1021C0001F910F91FF90EF90DF90CF90BF90AF9055
:1021D0009F908F907F906F905F904F903F902F9047
:1021E0001F900F900FBE0F900895809100010E94E4
:1021F0005803C0E0D0E02097F1F30E946601FBCFC6
:102200000F931F93CF93DF938230910510F482E0F8
:1022100090E0E0916103F091620330E020E0B0E0F3
:10222000A0E0309799F42115310509F44AC0281B24
:10223000390B24303105D8F58A819B8161157105F0
:1022400089F1FB0193838283FE0111C0408151819A
:102250000281138148175907E0F04817590799F48C
:10226000109761F012960C93129713961C93329666
:10227000CF01DF91CF911F910F91089500936103DA
:1022800010936203F4CF2115310551F04217530723
:1022900038F0A901DB019A01BD01DF01F801C1CFCE
:1022A000EF01F9CF9093620380936103CDCFFE01DC
:1022B000E20FF31F819391932250310939832883D0
:1022C000D7CF20915F0330916003232B41F42091FD
:1022D0000301309104013093600320935F03209148
:1022E0000101309102012115310541F42DB73EB7AE
:1022F0004091050150910601241B350BE0915F03CD
:10230000F0916003E217F307A0F42E1B3F0B281790
:10231000390778F0AC014E5F5F4F2417350748F05E
:102320004E0F5F1F5093600340935F03819391931F
:102330009FCFF0E0E0E09CCFCF93DF930097E9F0F0
:10234000FC01329713821282A0916103B091620363
:10235000ED0130E020E01097A1F420813181820F5F
:10236000931F20915F03309160032817390709F00C
:1023700061C0F0936003E0935F03DF91CF91089514
:10238000EA01CE17DF07E8F54A815B819E0141151E
:102390005105B1F7E901FB83EA8349915991C40FD3
:1023A000D51FEC17FD0761F4808191810296840F9F
:1023B000951FE90199838883828193819B838A8316
:1023C000F0E0E0E012968D919C9113970097B9F59B
:1023D0002D913C911197CD010296820F931F209170
:1023E0005F03309160032817390739F6309751F5AC
:1023F0001092620310926103B0936003A0935F0395
:10240000BCCFD383C28340815181840F951FC817ED
:10241000D90761F44E5F5F4F88819981480F591F3A
:10242000518340838A819B81938382832115310567
:1024300009F0B0CFF0936203E09361039ECFFD01FA
:10244000DC01C0CF13821282D7CFEE0FFF1F0590A1
:10245000F491E02D0994FB01DC0102C001900D9282
:1024600041505040D8F70895DC0101C06D934150B0
:0A2470005040E0F70895F894FFCF04
:10247A0003000063038000000000009501F2001FC2
:10248A0001E20150012E0142010D0A00526F626FF2
:10249A0020766972616E646F2064652072656820B7
:1024AA007061726120657371756572646100526F43
:1024BA00626F20766972616E646F2064652072654E
:1024CA006820706172612064697265697461005282
:1024DA006F626F20616E64616E646F206465207242
:1024EA00656800526F626F2070617261646F00529A
:1024FA006F626F20616E64616E646F2070617261D9
:10250A0020657371756572646100526F626F206134
:10251A006E64616E646F20706172612064697265B5
:10252A0069746100526F626F20616E64616E646FDC
:10253A002070617261206672656E746500496E6909
:10254A006369616E646F205461736B732E00496E08
:10255A00696369615461736B004672656E746500E4
:10256A005061726172005265005265446972656910
:10257A0074610052654573717565726461004944FE
:0C258A004C4500546D7220537663000035
:00000001FF
