:100000000C945D000C9485000C9485000C94850084
:100010000C9485000C9485000C94690F0C94850059
:100020000C9485000C9485000C9485000C9485003C
:100030000C9485000C9485000C9485000C9485002C
:100040000C94AC030C9485000C941C040C94F603E3
:100050000C9485000C9485000C9485000C9485000C
:100060000C9485000C94850000000008000201003B
:100070000003040700000000000000000000000072
:10008000250028002B0000000000240027002A0083
:10009000040404040404040402020202020203032E
:1000A0000303030301020408102040800102040836
:1000B00010200102040810206C0F11241FBECFEF86
:1000C000D8E0DEBFCDBF12E0A0E0B1E0E2E2F4E2B2
:1000D00002C005900D92A030B107D9F723E0A0E04F
:1000E000B2E001C01D92A534B207E1F710E0CDE502
:1000F000D0E004C02197FE010E94F911CC35D10750
:10010000C9F70E94B70F0C940F120C94000090E0F6
:10011000FC01EC55FF4F249180579F4FFC018491C7
:10012000882399F090E0880F991FFC01EA57FF4F50
:10013000A591B491FC01E458FF4F859194918FB73C
:10014000F894EC91E22BEC938FBF089590E0FC01C2
:10015000E859FF4F2491FC01EC55FF4F3491FC010D
:10016000E057FF4FE491EE23C9F0222339F023300A
:1001700001F1A8F4213019F1223029F1F0E0EE0F5D
:10018000FF1FE458FF4FA591B4918FB7F894EC91FD
:10019000611126C030953E233C938FBF08952730D0
:1001A000A9F02830C9F0243049F7809180008F7D74
:1001B00003C0809180008F7780938000DFCF84B56B
:1001C0008F7784BDDBCF84B58F7DFBCF8091B0006E
:1001D0008F778093B000D2CF8091B0008F7DF9CF20
:1001E0003E2BDACFAF92BF92CF92DF92EF92FF9287
:1001F0000F931F93CF93DF936C017B018B01040F4F
:10020000151FEB015E01AE18BF08C017D10759F0EA
:100210006991D601ED91FC910190F081E02DC6012C
:100220000995892B79F7C501DF91CF911F910F9126
:10023000FF90EF90DF90CF90BF90AF900895FC01BA
:10024000538D448D252F30E0842F90E0821B930B3B
:10025000541710F0CF96089501970895FC01918DE1
:10026000828D981761F0A28DAE0FBF2FB11D5D96E4
:100270008C91928D9F5F9F73928F90E008958FEF86
:100280009FEF0895FC01918D828D981731F0828D3A
:10029000E80FF11D858D90E008958FEF9FEF089591
:1002A000FC01918D228D892F90E0805C9F4F821BF5
:1002B00091098F73992708958CE992E00E9450016B
:1002C00021E0892B09F420E0822F08950E945C012F
:1002D00081110C940000089580E090E0892B11F0CA
:1002E0000C9466010895FC01A48DA80FB92FB11DCF
:1002F000A35ABF4F2C91848D90E001968F7399275C
:10030000848FA689B7892C93A089B1898C91837039
:1003100080648C93938D848D981306C00288F38932
:10032000E02D80818F7D80830895EF92FF920F935F
:100330001F93CF93DF93EC0181E0888F9B8D8C8D91
:1003400098131AC0E889F989808185FF15C09FB785
:10035000F894EE89FF896083E889F9898081837048
:10036000806480839FBF81E090E0DF91CF911F91F7
:100370000F91FF90EF900895F62E0B8D10E00F5F18
:100380001F4F0F731127E02E8C8D8E110CC00FB6EE
:1003900007FCFACFE889F989808185FFF5CFCE0186
:1003A0000E947301F1CFEB8DEC0FFD2FF11DE35A8D
:1003B000FF4FF0829FB7F8940B8FEA89FB89808109
:1003C0008062CFCFCF93DF93EC01888D8823B9F083
:1003D000AA89BB89E889F9898C9185FD03C0808150
:1003E00086FD0DC00FB607FCF7CF8C9185FFF2CFCD
:1003F000808185FFEDCFCE010E947301E9CFDF91AF
:10040000CF910895259A2D9A0895CF93DF93FC01FB
:1004100001900020E9F73197AF01481B590BBC014F
:100420008CE992E00E94F200EC0142E050E069E1C8
:1004300071E08CE992E00E94F2008C0F9D1FDF9129
:10044000CF9108958CE191E00E94050260E08091D7
:1004500039030E94A60060E080913D030E94A6003F
:1004600060E080913B030E94A60061E080913F0321
:100470000E94A6000E94330B8091100290911102FD
:100480000E94410B80910E0290910F020E94A80BD6
:10049000D9CF8EE391E00E94050260E0809139039C
:1004A0000E94A60061E080913D030E94A60060E0EA
:1004B00080913B030E94A60060E080913F030E9470
:1004C000A6000E94330B80910E0290910F020E94B1
:1004D000410B80910C0290910D020E94A80BD9CF84
:1004E0008FE591E00E94050260E0809139030E944F
:1004F000A60061E080913D030E94A60060E080912B
:100500003B030E94A60061E080913F030E94A60089
:100510000E94330B80910C0290910D020E94410BBE
:1005200080910A0290910B020E94A80BD9CF83E719
:1005300091E00E94050260E0809139030E94A600CC
:1005400060E080913D030E94A60060E080913F033F
:100550000E94A60060E080913B030E94A6000E94DA
:10056000330B80910A0290910B020E94410B809103
:100570000802909109020E94A80BD9CF8FE791E061
:100580000E94050260E0809139030E94A60060E0AD
:1005900080913D030E94A60061E080913B030E9490
:1005A000A60060E080913F030E94A6000E94330BEA
:1005B00080910802909109020E94410B80910602ED
:1005C000909107020E94A80BD9CF8AE991E00E947E
:1005D000050261E0809139030E94A60060E08091ED
:1005E0003D030E94A60060E080913B030E94A600AC
:1005F00060E080913F030E94A6000E94330B80912F
:100600000602909107020E94410B80910402909192
:1006100005020E94A80BD9CF84EB91E00E9405024D
:1006200061E0809139030E94A60060E080913D0363
:100630000E94A60061E080913B030E94A60060E05A
:1006400080913F030E94A6000E94330B8091040218
:10065000909105020E94410B80911002909111022D
:100660000E94A80BD9CF0F931F93ECE9F2E0A08969
:10067000B18982E08C93A485B5851C92A685B78547
:100680008FEC8C93108EA489B58986E08C93A28917
:10069000B3898C9180618C93A289B3898C91886095
:1006A0008C93A289B3898C9180688C930288F3899A
:1006B000E02D80818F7D808300E112E021E048EE13
:1006C00053E06DEC71E08CE093E00E94400E04E09A
:1006D00012E021E048EE53E06FED71E085EE92E02C
:1006E0000E94400E06E012E023E048EE53E069EE7F
:1006F00071E08EEB92E00E94400E08E012E024E0F0
:1007000048EE53E064ED71E087E992E00E94400E0C
:100710000AE012E025E048EE53E06AED71E080E780
:1007200092E00E94400E0CE012E026E048EE53E01A
:100730006DED71E089E492E00E94400E0EE012E05F
:1007400027E048EE53E067EE71E082E292E00E941B
:10075000400E1F910F9108951F920F920FB60F92A6
:1007600011242F933F938F939F93AF93BF938091C7
:100770003F0290914002A0914102B091420230911B
:100780003E0223E0230F2D3758F50196A11DB11D20
:1007900020933E0280933F0290934002A093410237
:1007A000B093420280913A0290913B02A0913C02A8
:1007B000B0913D020196A11DB11D80933A02909324
:1007C0003B02A0933C02B0933D02BF91AF919F9139
:1007D0008F913F912F910F900FBE0F901F90189502
:1007E00026E8230F0296A11DB11DD2CF1F920F92B2
:1007F0000FB60F9211242F933F934F935F936F93F4
:100800007F938F939F93AF93BF93EF93FF938CE965
:1008100092E00E947301FF91EF91BF91AF919F9180
:100820008F917F916F915F914F913F912F910F9099
:100830000FBE0F901F9018951F920F920FB60F9238
:1008400011242F938F939F93EF93FF93E091AC022A
:10085000F091AD028081E091B202F091B30282FD8D
:100860001BC090818091B5028F5F8F732091B6027B
:10087000821741F0E091B502F0E0E456FD4F958F0C
:100880008093B502FF91EF919F918F912F910F90DF
:100890000FBE0F901F9018958081F4CFE091450214
:1008A000F09146028081811107C08FEF9FEF9093F6
:1008B0003702809336020895E0914502F091460296
:1008C0000580F681E02D80819181F1CFCF93DF9378
:1008D000DC011596ED91FC910680F781E02DA4894D
:1008E000B5898685978520893189EC013D832C83E4
:1008F000C089D1899B838A83CF010C9611962D9153
:100900003C9112972817390721F41296DC93CE9365
:100910001197158A148A2C9121502C93209115023D
:10092000211157C0A285B3858481958126813781A5
:10093000EC013D832C83C681D7819B838A83CF01C1
:10094000029611962D913C9112972817390721F4A0
:100950001296DC93CE931197138612862C91215018
:100960002C93C689209198022C1710F4C0939802FA
:1009700029E02C9FE0011124CC58DD4F0980DA8159
:10098000C02DD583C4834C815D8157834683AC8160
:10099000BD8113969C938E9312979D838C83A68919
:1009A000A29FD0011124AC58BD4FB387A2878C9170
:1009B0008F5F8C93A0910002B091010296895696A8
:1009C0008C91891730F581E080931402DF91CF91EB
:1009D0000895A0915A02B0915B02B787A68714963A
:1009E0002D913C911597318B208B1496CD91DC91F4
:1009F00015979B838A8315969C938E93149789E50C
:100A000092E0958B848B809159028F5F809359027D
:100A1000D1CF80E0DBCF0FB6F8940F9280913402F3
:100A2000909135020F900FBE0895809115028F5F4F
:100A30008093150208950FB6F8940F92FC01928DE1
:100A40000F900FBE81E0911180E00895EF92FF9228
:100A50000F931F93CF93DF93EC010FB6F8940F928F
:100A60001E8D7C0181E1E80EF11C01E01116D4F02D
:100A70008FEF8E8F0F900FBE0FB6F8940F921D8DD3
:100A80007E0188E0E80EF11C01E01116B4F08FEF52
:100A90008D8F0F900FBEDF91CF911F910F91FF901F
:100AA000EF9008958989882319F3C7010E9466048D
:100AB0008111009314021150D9CF8885882339F30E
:100AC000C7010E9466048111009314021150DDCF0A
:100AD000CF93DF93FC01A085B1858281938124812E
:100AE0003581EC013D832C83C481D5819B838A832E
:100AF00011968D919C9112978E179F0721F4129653
:100B0000DC93CE931197118610868C9181508C9333
:100B10008C91DF91CF9108950F931F93CF93DF9323
:100B20008C01FB0180819181D80113968F3F98073A
:100B3000F1F4E801AF81B88512968D919C911397DD
:100B400093838283EC01FD83EC83B583A4831396A6
:100B5000FC93EE93129711870087F80180818F5FD5
:100B60008083DF91CF911F910F910895D901129643
:100B70002D913C911397E90148815981841795077C
:100B8000A8F7DACFFC0173836283918780874617C9
:100B9000570790F0421B530B8485958548175907DA
:100BA000C8F4BF016E5F7F4F80911A0290911B02C3
:100BB0000E948C0580E008954217530718F46217CD
:100BC000730740F4BF016E5F7F4F80911C029091CC
:100BD0001D02EECF81E00895EF92FF920F931F93D5
:100BE000CF93DF93EC018B017A016C857D85600FDB
:100BF000711F9801A701CE010E94C205811107C093
:100C0000DF91CF911F910F91FF90EF9008958C8508
:100C10009D85080F191FE889F989CE010995E5CF4F
:100C2000EF92FF920F931F93CF93DF938C017B0181
:100C3000E0911C02F0911D020580F681E02DC68135
:100C4000D781CE0102960E9468058A8982FF0FC073
:100C5000A701B801CE010E94EC05E889F989CE010F
:100C6000DF91CF911F910F91FF90EF9009948E7FAC
:100C70008A8BF3CFE0911C02F0911D0280818111DB
:100C80000DC080911A0290911B0290931D028093D7
:100C90001C02F0931B02E0931A0208950580F6816E
:100CA000E02D6FEF7FEF808191810E941006E2CFEF
:100CB000FF920F931F93CF93DF93EC01F62E0091D9
:100CC0003402109135028091000290910102029647
:100CD0000E946805CF3FDC07E9F5FF20D9F1E091DC
:100CE0004802F0914902A0910002B09101021596CC
:100CF000FC93EE931497A0910002B09101028481BD
:100D0000958117969C938E931697809100029091EF
:100D10000102A481B581029613969C938E9312973B
:100D20008091000290910102029695838483E09164
:100D30000002F091010287E492E09387828780911C
:100D400047028F5F80934702DF91CF911F910F91F0
:100D5000FF900895C00FD11FE0910002F0910102B1
:100D6000D383C2836091000270910102C017D10742
:100D700068F480914302909144026E5F7F4FDF914F
:100D8000CF911F910F91FF900C948C05809145029B
:100D9000909146026E5F7F4F0E948C0580913602D3
:100DA00090913702C817D90778F6D0933702C093CD
:100DB0003602CACFFC010396928381832FEF3FEF67
:100DC0003483238396838583908787831082089555
:100DD0000F920FB6F8940F921F9211242F923F9208
:100DE0004F925F926F927F928F929F92AF92BF923B
:100DF000CF92DF92EF92FF920F931F932F933F9327
:100E00004F935F936F937F938F939F93AF93BF9312
:100E1000CF93DF93EF93FF93A0910002B091010273
:100E20000DB60D920EB60D9213BE80911502811172
:100E3000F9C0809134029091350201969093350269
:100E400080933402009781F520914502309146024B
:100E50004091430250914402509346024093450210
:100E60003093440220934302209119022F5F209374
:100E70001902E0914502F09146022081211107C03C
:100E80002FEF3FEF30933702209336020DC0E091F1
:100E90004502F09146020580F681E02D20813181E6
:100EA0003093370220933602209136023091370278
:100EB0008217930710F420E0A1C020E039E0D32E80
:100EC000E0914502F09146023081311107C08FEF69
:100ED0009FEF909337028093360290C0E0914502D5
:100EE000F09146020580F681E02D0680F781E02D25
:100EF000428153818417950728F450933702409319
:100F000036027CC0A285B385448155816681778194
:100F1000EA017D836C8366817781EB015B834A8381
:100F2000AF014E5F5F4F11960D911C911297041700
:100F3000150721F412967C936E93119713861286EF
:100F40003C9131503C93A489B5891097F9F066859E
:100F5000778500891189EB011D830C830089118934
:100F6000E8017B836A831196ED90FC901297BF0194
:100F7000645F7F4FE616F70621F412961C930E93DA
:100F80001197158A148A3C9131503C93A68930916F
:100F900098023A1710F4A0939802DA9ED001112417
:100FA000AC58BD4F11960D90BC91A02DB583A48374
:100FB00014966D917C9115977783668314966D9145
:100FC0007C911597EB015B834A8315965C934E9356
:100FD000149746894D9DD0011124AC58BD4FB3875D
:100FE000A2873C913F5F3C93E0910002F0910102A7
:100FF0003689341708F064CF21E062CFE091000217
:10100000F0910102E689D9E0ED9FF0011124EC583E
:10101000FD4F8081823008F021E08091140281111F
:101020000EC00AC080911202909113020196909313
:1010300013028093120268C0222309F465C08091D4
:101040001502882321F081E0809314025DC0109284
:101050001402A0910002B0910102E0910002F0910F
:1010600001022D913C918789908D82179307A8F0FA
:101070008091000290910102809100029091010202
:10108000259A2D9A2FEF87EA91E6215080409040D3
:10109000E1F700C000001D9AF5CF2091980289E089
:1010A00001C02150422F50E0849FF001859FF00D38
:1010B0001124EC58FD4F9081992399F3A181B281BD
:1010C00012966D917C9172836183289FC0011124D7
:1010D00089589D4F6817790721F4858196819283FD
:1010E000818389E0849FF001859FF00D1124EC58E5
:1010F000FD4F0180F281E02D86819781909301025E
:101100008093000220939802A0910002B091010206
:10111000CD91CDBFDD91DEBFFF91EF91DF91CF91FA
:10112000BF91AF919F918F917F916F915F914F91FF
:101130003F912F911F910F91FF90EF90DF90CF90F3
:10114000BF90AF909F908F907F906F905F904F90E7
:101150003F902F901F900F900FBE0F9008950F9209
:101160000FB6F8940F921F9211242F923F924F9234
:101170005F926F927F928F929F92AF92BF92CF9227
:10118000DF92EF92FF920F931F932F933F934F9312
:101190005F936F937F938F939F93AF93BF93CF93FF
:1011A000DF93EF93FF93A0910002B09101020DB67F
:1011B0000D920EB60D9280911502882321F081E0E8
:1011C000809314025DC010921402A0910002B091AD
:1011D0000102E0910002F09101022D913C9187897A
:1011E000908D82179307A8F08091000290910102E0
:1011F0008091000290910102259A2D9A2FEF87EAA3
:1012000091E6215080409040E1F700C000001D9A17
:10121000F5CF2091980289E001C02150422F50E083
:10122000849FF001859FF00D1124EC58FD4F9081B3
:10123000992399F3A181B28112966D917C91728369
:101240006183289FC001112489589D4F6817790731
:1012500021F4858196819283818389E0849FF001C6
:10126000859FF00D1124EC58FD4F0180F281E02D97
:1012700086819781909301028093000220939802C7
:10128000A0910002B0910102CD91CDBFDD91DEBFF2
:10129000FF91EF91DF91CF91BF91AF919F918F918E
:1012A0007F916F915F914F913F912F911F910F917E
:1012B000FF90EF90DF90CF90BF90AF909F908F9076
:1012C0007F906F905F904F903F902F901F900F9066
:1012D0000FBE0F9008958F929F92BF92CF92DF9290
:1012E000EF92FF920F931F93CF93DF930FB6F89473
:1012F0000F92809115028150809315028091150202
:10130000882379F080E00F900FBEDF91CF911F917D
:101310000F91FF90EF90DF90CF90BF909F908F90B4
:10132000089580919B02882369F3E0905E02F0901B
:101330005F02F0E0E0E039E041E080915902811184
:101340005EC0EF2B11F00E944E04E0901202F0906C
:101350001302E114F10409F47DC189E0D82ECC24F4
:10136000C3940FEF1FEF80911502811161C1C091ED
:101370003402D09135024E018FEF881A980A90926C
:1013800035028092340281149104B9F480914502AF
:1013900090914602209143023091440230934602DC
:1013A0002093450290934402809343028091190256
:1013B0008F5F809319020E944E04809136029091B3
:1013C0003702B12C8816990608F026C1E091000278
:1013D000F0910102E689DE9EF0011124EC58FD4FE8
:1013E0008081823010F0BB24B3948091140281116B
:1013F00003C0BB2009F425C1C092140222C1D70149
:101400001696ED91FC91A489B589668577858089CA
:101410009189EB019D838C8380899189EC017B8389
:101420006A83BF01645F7F4F11960D911C911297E3
:101430000617170721F412969C938E931197158A1D
:10144000148A8C9181508C93A285B3858481958177
:1014500066817781EC017D836C8366817781EB0106
:101460009B838A83CF01029611960D911C9112974E
:101470000817190721F412967C936E93119713861F
:1014800012862C9121502C93A689209198022A171C
:1014900010F4A09398023A9FD0011124AC58BD4F8C
:1014A00011960D90BC91A02DB583A48314966D91D7
:1014B0007C9115977783668314966D917C9115972F
:1014C000EB019B838A8315969C938E931497968940
:1014D000939FD0011124AC58BD4FB387A2878C9144
:1014E0008F5F8C93A0910002B091010256968C916F
:1014F000891708F022CF409314021FCFE0914502D4
:10150000F09146020580F681E02D0680F781E02DFE
:10151000828193818816990628F4909337028093EC
:10152000360254CFC285D385848195812681378147
:10153000DC0115963C932E93149726813781D901AF
:1015400013969C938E931297CF01029649815A81EC
:101550004817590711F43A83298313861286288184
:1015600021502883A489B5891097F9F026853785FD
:1015700040895189E9015D834C8340895189EA01A1
:101580003B832A8311966D917C9112979F01245F72
:101590003F4F6217730721F412965C934E93119795
:1015A000158A148A2C9121502C93A6892091980297
:1015B0002A1710F4A0939802DA9ED0011124AC5897
:1015C000BD4F11960D90BC91A02DB583A4831496A8
:1015D0002D913C9115973783268314962D913C913C
:1015E0001597E9019B838A8315969C938E93149794
:1015F00096899D9DD0011124AC58BD4FB387A28719
:101600008C918F5F8C93E0910002F09101028689AA
:10161000891710F4BB24B394E0914502F09146027F
:10162000808181116BCF1093370200933602CECEAA
:10163000809112029091130201969093130280936D
:101640001202D1E0ED1AF10809F08DCE10921302CA
:101650001092120280911402882309F453CE0E9442
:10166000AF0881E050CE0E94150560E088E390E06D
:101670000E9458060E946B09811102C00E94AF08A7
:1016800008950F931F93CF93DF93EC018091000295
:10169000909101028C179D0709F455C0209709F419
:1016A00052C00FB6F8940F928A859B85875492405A
:1016B00009F047C08C899D89E2E089359E0709F4CD
:1016C00040C0892BF1F58E010E5F1F4FC8010E94AB
:1016D0006805AE89809198028A1710F4A093980249
:1016E00029E02A9FD0011124AC58BD4F11960D90CE
:1016F000BC91A02DBD83AC8314968D919C911597C0
:101700009F838E8314968D919C911597FC01138372
:10171000028315961C930E9314979E89929FF00155
:101720001124EC58FD4FFB87EA8780818F5F80830F
:10173000E0910002F09101028689891710F40E945D
:10174000AF080F900FBEDF91CF911F910F910895B9
:101750000F931F93CF93DF93EC010FB6F8940F9282
:10176000892B21F4C0910002D09101028E010E5FFD
:101770001F4FC8010E9468058C899D89892B21F023
:10178000CE010C960E946805E0914802F091490252
:10179000FD83EC83848195819F838E83A481B581B1
:1017A00013961C930E9312971583048387E492E09B
:1017B0009B878A87809147028F5F809347028FA122
:1017C000813009F41FA20F900FBE80919A028823E6
:1017D00039F00FB6F8940F920E944E040F900FBE8E
:1017E00080910002909101028C179D0731F4809145
:1017F0009A02882339F00E94AF08DF91CF911F91A0
:101800000F9108959091470280919B02981305C013
:101810001092010210920002F0CF809115028823ED
:1018200021F081E080931402E8CF10921402A0917D
:101830000002B0910102E0910002F09101022D91AD
:101840003C918789908D82179307A8F080910002C0
:101850009091010280910002909101020E94020287
:101860002FEF87EA91E6215080409040E1F700C0D9
:1018700000001D9AF5CF2091980289E0422F50E098
:10188000849FF001859FF00D1124EC58FD4F90814D
:10189000992339F1A181B28112966D917C91728365
:1018A0006183289FC001112489589D4F68177907CB
:1018B00021F4858196819283818389E0849FF00160
:1018C000859FF00D1124EC58FD4F0180F281E02D31
:1018D0008681978190930102809300022093980261
:1018E0008CCF2150CBCFCF93DF93009751F0EC01F9
:1018F0000E941505CE010E947011DF91CF910C94CA
:101900006B09DF91CF910895CF93DF9300D000D082
:101910001F92CDB7DEB7E0911C02F0911D0210813D
:10192000F12CE12C112329F00580F681E02DE080D7
:10193000F1800E9415050E940B056C018091170231
:1019400090911802C816D90608F085C00E943A0680
:10195000D0921802C09217020E946B0900913202C5
:10196000109133020FB6F8940F92D8015A96FC905A
:101970005A97FF2009F430C15C964C915C97442340
:1019800001F150E016968D919C911797840F951F49
:1019900017969C938E93169714962D913C911597BC
:1019A0008217930738F08D919C91119717969C930D
:1019B0008E931697F80166817781CE0101960E9479
:1019C000FF11FA94D8015A96FC925A9718968C9166
:1019D000882339F0C80108960E94660481110E948C
:1019E000AF080F900FBED980D7FCB8CF0C811D81F6
:1019F000D8011A968D919C91892B21F0C8010296ED
:101A00000E9468050E940B057C018091170290914D
:101A10001802E816F90610F40E943A06F09218022D
:101A2000E0921702EFEFED0DE93008F097CF0E2EA0
:101A3000000CFF0BEE5DF24FD80152968C9152973D
:101A40000C94F911A50DA50DE80DD00DE20DA50D15
:101A5000A50DE80DD00DD0921802C09217021123E7
:101A600051F0CE14DF0470F00E946B09B601C7017B
:101A70000E94100673CFE0911A02F0911B02808140
:101A800061E0811160E000913202109133020FB6E3
:101A9000F8940F92D8015D968C915D978F3F11F469
:101AA0005D961C92F801868D8F3F09F4168E0F907B
:101AB0000FBED8015A968C915A9781113CC052960C
:101AC000ED91FC91A0910002B09101021F96FC9350
:101AD000EE931E97A0910002B0910102848195813E
:101AE00051969C938E9350978091000290910102A1
:101AF000A481B5810C9613969C938E931297809136
:101B00000002909101020C9695838483E09100027B
:101B1000F0910102C8014196958B848BF80181896F
:101B20008F5F818BC7018C199D09662311F08FEFA0
:101B30009FEF0E945806C8010E9426050E946B096B
:101B400081110CCF0E94AF0809CF8160F801828B10
:101B5000CA80DB80648575856C0D7D1D9601A701AB
:101B6000C8010E94C205882309F4F8CED801529614
:101B70008C91529782FF10C01C966D917C916C0DD8
:101B80007D1DA701C8010E94EC05D8015096ED917A
:101B9000FC91C8010995E2CE8E7FF801828BF5CFCA
:101BA000816052968C9352976A817B811D967C93BB
:101BB0006E931C976E0D7F1D9701A701C8010E94AF
:101BC000C205CCCE81FD04C0C8010E94730CC6CEF4
:101BD0008E7FF801828BC2CE0F900FBE9CCE00E0AC
:101BE00010E08091160281110CC080917402823045
:101BF00010F00E94AF080115110599F30E946601CB
:101C0000F0CF0FB6F8940F92E0915502F091560282
:101C1000C681D781CE0102960E94680580919B0201
:101C2000815080939B02809116028150809316020E
:101C30000F900FBE8F89988D0E94730CCE010E9469
:101C4000730CCFCFCF93DF93EC010E941505CE012B
:101C50000E94D410EC010E946B09209769F40E9445
:101C600002022FEF80E792E0215080409040E1F7A0
:101C700000C000001D9AF5CFCE01DF91CF910895ED
:101C80007F928F929F92AF92BF92CF92DF92EF920C
:101C9000FF920F931F93CF93DF93982EE92E762E0A
:101CA000872E6A01F22ECA010E94220E5C01892B46
:101CB00009F4EEC088E290E00E94220EEC01892B2C
:101CC00009F4E3C088E2DE011D928A95E9F7B88E37
:101CD000AF8AA60165EA70E0C5010E940812B1E072
:101CE000CB1AD108EF89F88DEC0DFD1D672D782DED
:101CF000CE0149969B01285F3F4FDB014D91BD010D
:101D0000DC014D93CD01AB0141505109DA014C91F9
:101D1000442319F06217730781F718A22F2D24307E
:101D200008F023E02E8B29A31B861A861D8A1C8AA5
:101D3000D987C88784E090E0821B91099D878C87B2
:101D4000DB8BCA8B9082DF011197EC9211971C926A
:101D5000119780E88C9311971C9257971C921197BA
:101D60001C92B397F983E883F801D183C0830FB63F
:101D7000F8940F9280919B028F5F80939B028091D9
:101D8000000290910102892B09F091C0D0930102C9
:101D9000C093000280919B02813081F584E792E03C
:101DA0000E94DA068DE792E00E94DA0686E892E069
:101DB0000E94DA068FE892E00E94DA068BE692E053
:101DC0000E94DA0682E692E00E94DA0689E592E055
:101DD0000E94DA0680E592E00E94DA0687E492E04B
:101DE0000E94DA068BE692E09093460280934502C9
:101DF00082E692E09093440280934302809199029C
:101E00008F5F80939902AE89809198028A1710F4AF
:101E1000A093980229E02A9FD0011124AC58BD4F0D
:101E200011960D90BC91A02DBD83AC8314968D911D
:101E30009C9115979F838E831496ED91FC91159735
:101E4000CE0102969383828315969C938E9314976A
:101E5000EE89E29FF0011124EC58FD4FFB87EA87E1
:101E600080818F5F80830F900FBE80919A028823BC
:101E700051F0E0910002F091010296898E89981745
:101E800010F40E94AF0881E004C0C5010E94730CE9
:101E90008FEFDF91CF911F910F91FF90EF90DF9027
:101EA000CF90BF90AF909F908F907F90089580913A
:101EB0009A028111A3CFE0910002F091010296896C
:101EC0008E89891708F49ACFD0930102C09300023B
:101ED00095CF0E94E8061895ECE9F2E01382128291
:101EE00088EE93E0A0E0B0E084839583A683B78377
:101EF0008BE091E09183808385EC90E095878487E7
:101F000084EC90E09787868780EC90E0918B808BC3
:101F100081EC90E0938B828B82EC90E0958B848BAC
:101F200086EC90E0978B868B118E128E138E148E1A
:101F300083E00E94870086E00E94870085E00E947F
:101F4000870089E00E948700E9E3F3E083E090E006
:101F50009183808386E090E09383828385E090E0A4
:101F60009583848389E090E09783868308957894AD
:101F700084B5826084BD84B5816084BD85B582608E
:101F800085BD85B5816085BD80916E00816080933F
:101F90006E001092810080918100826080938100A8
:101FA00080918100816080938100809180008160B8
:101FB000809380008091B10084608093B100809113
:101FC000B00081608093B00080917A00846080933B
:101FD0007A0080917A00826080937A0080917A0002
:101FE000816080937A0080917A00806880937A0083
:101FF0001092C10020910501309106018FEF98E009
:10200000821B930B90930201809301010E94330382
:1020100008E312E020E040EC50E062EF71E08FEE68
:102020009DE00E94400E813009F0B3C00FB6F894D5
:102030000F928091320290913302892B09F04FC0A8
:1020400087E292E00E94DA068EE192E00E94DA06D0
:1020500087E292E090931D0280931C028EE192E051
:1020600090931B0280931A0281E590E00E94220E59
:10207000EC01009781F14F96998388838AE08B8FDA
:1020800085E08C8F0FB6F8940F92888199812B8D03
:102090004C8DBC01249F600D711D11247D836C83C8
:1020A0001A8E9B838A832150330B429FB001439F3A
:1020B000700D1124860F971F9F838E838FEF8D8F56
:1020C0008E8FCE0108960E94DA06CE0141960E94BC
:1020D000DA060F900FBED0933302C09332020F90F6
:1020E0000FBE8091320290913302892B09F451C0C6
:1020F00000E312E023E045E550E067EF71E084E89B
:102100009CE00E94400E813009F043C0F8942FEF0C
:102110003FEF309337022093360280939A02109259
:10212000350210923402A89588E190EC0FB6F8942D
:10213000A895809360000FBE90936000A09100026C
:10214000B0910102CD91CDBFDD91DEBFFF91EF9146
:10215000DF91CF91BF91AF919F918F917F916F91BF
:102160005F914F913F912F911F910F91FF90EF90B1
:10217000DF90CF90BF90AF909F908F907F906F90A7
:102180005F904F903F902F901F900F900FBE0F9039
:102190000895809100010E943303C0E0D0E02097B1
:1021A000F1F30E946601FBCF0F931F93CF93DF9350
:1021B0008230910510F482E090E0E0914303F091C9
:1021C000440330E020E0B0E0A0E0309799F421151E
:1021D000310509F44AC0281B390B24303105D8F5E4
:1021E0008A819B816115710589F1FB01938382834B
:1021F000FE0111C0408151810281138148175907A6
:10220000E0F04817590799F4109761F012960C9373
:10221000129713961C933296CF01DF91CF911F91A5
:102220000F9108950093430310934403F4CF2115B5
:10223000310551F04217530738F0A901DB019A012B
:10224000BD01DF01F801C1CFEF01F9CF9093440345
:1022500080934303CDCFFE01E20FF31F819391934F
:102260002250310939832883D7CF209141033091FF
:102270004203232B41F42091030130910401309358
:102280004203209341032091010130910201211565
:10229000310541F42DB73EB740910501509106013B
:1022A000241B350BE0914103F0914203E217F30741
:1022B000A0F42E1B3F0B2817390778F0AC014E5FB6
:1022C0005F4F2417350748F04E0F5F1F50934203AE
:1022D00040934103819391939FCFF0E0E0E09CCF46
:1022E000CF93DF930097E9F0FC01329713821282BB
:1022F000A0914303B0914403ED0130E020E010973A
:10230000A1F420813181820F931F209141033091EC
:1023100042032817390709F061C0F0934203E093A4
:102320004103DF91CF910895EA01CE17DF07E8F569
:102330004A815B819E0141155105B1F7E901FB839B
:10234000EA8349915991C40FD51FEC17FD0761F439
:10235000808191810296840F951FE901998388837A
:10236000828193819B838A83F0E0E0E012968D91D5
:102370009C9113970097B9F52D913C911197CD0140
:102380000296820F931F2091410330914203281738
:10239000390739F6309751F51092440310924303F0
:1023A000B0934203A0934103BCCFD383C283408147
:1023B0005181840F951FC817D90761F44E5F5F4F95
:1023C00088819981480F591F518340838A819B815D
:1023D000938382832115310509F0B0CFF093440334
:1023E000E09343039ECFFD01DC01C0CF1382128234
:1023F000D7CFEE0FFF1F0590F491E02D0994FB015C
:10240000DC0102C001900D9241505040D8F7089570
:10241000DC0101C06D9341505040E0F70895F894FD
:02242000FFCFEC
:1024220003000045038000000000009501F2001F38
:1024320001E20150012E0142010D0A00526F626F4A
:1024420020766972616E646F2064652072C3A92070
:102452007061726120657371756572646100526F9B
:10246200626F20766972616E646F2064652072C348
:10247200A920706172612064697265697461005299
:102482006F626F20616E64616E646F20646520729A
:10249200C3A900526F626F2070617261646F005253
:1024A2006F626F20616E64616E646F207061726131
:1024B20020657371756572646100526F626F20618D
:1024C2006E64616E646F207061726120646972650E
:1024D20069746100526F626F20616E64616E646F35
:1024E2002070617261206672656E74650046726565
:1024F2006E746500506172617200526500526544EB
:1025020069726569746100526545737175657264BB
:10251200610049444C4500546D72205376630000BB
:00000001FF
