:100000000C945D000C9485000C9485000C94850084
:100010000C9485000C9485000C947F0E0C94850044
:100020000C9485000C9485000C9485000C9485003C
:100030000C9485000C9485000C9485000C9485002C
:100040000C94C9020C9485000C9439030C9413038E
:100050000C9485000C9485000C9485000C9485000C
:100060000C9485000C94850000000008000201003B
:100070000003040700000000000000000000000072
:10008000250028002B0000000000240027002A0083
:10009000040404040404040402020202020203032E
:1000A0000303030301020408102040800102040836
:1000B00010200102040810209F0F11241FBECFEF53
:1000C000D8E0DEBFCDBF11E0A0E0B1E0E2E1F2E2B6
:1000D00002C005900D92A036B107D9F722E0A0E644
:1000E000B1E001C01D92A539B207E1F710E0CDE5FE
:1000F000D0E004C02197FE010E94F110CC35D10759
:10010000C9F70E94820E0C9407110C94000090E035
:10011000FC01EC55FF4F249180579F4FFC018491C7
:10012000882399F090E0880F991FFC01EA57FF4F50
:10013000A591B491FC01E458FF4F859194918FB73C
:10014000F894EC91E22BEC938FBF089590E0FC01C2
:10015000E859FF4F2491FC01EC55FF4F3491FC010D
:10016000E057FF4FE491EE23C9F0222339F023300A
:1001700001F1A8F4213019F1223029F1F0E0EE0F5D
:10018000FF1FE458FF4FA591B4918FB7F894EC91FD
:10019000611126C030953E233C938FBF08952730D0
:1001A000A9F02830C9F0243049F7809180008F7D74
:1001B00003C0809180008F7780938000DFCF84B56B
:1001C0008F7784BDDBCF84B58F7DFBCF8091B0006E
:1001D0008F778093B000D2CF8091B0008F7DF9CF20
:1001E0003E2BDACFAF92BF92CF92DF92EF92FF9287
:1001F0000F931F93CF93DF936C017B018B01040F4F
:10020000151FEB015E01AE18BF08C017D10759F0EA
:100210006991D601ED91FC910190F081E02DC6012C
:100220000995892B79F7C501DF91CF911F910F9126
:10023000FF90EF90DF90CF90BF90AF900895FC01BA
:10024000538D448D252F30E0842F90E0821B930B3B
:10025000541710F0CF96089501970895FC01918DE1
:10026000828D981761F0A28DAE0FBF2FB11D5D96E4
:100270008C91928D9F5F9F73928F90E008958FEF86
:100280009FEF0895FC01918D828D981731F0828D3A
:10029000E80FF11D858D90E008958FEF9FEF089591
:1002A000FC01918D228D892F90E0805C9F4F821BF5
:1002B00091098F739927089582EC91E00E94500173
:1002C00021E0892B09F420E0822F08950E945C012F
:1002D00081110C940000089580E090E0892B11F0CA
:1002E0000C9466010895FC01A48DA80FB92FB11DCF
:1002F000A35ABF4F2C91848D90E001968F7399275C
:10030000848FA689B7892C93A089B1898C91837039
:1003100080648C93938D848D981306C00288F38932
:10032000E02D80818F7D80830895EF92FF920F935F
:100330001F93CF93DF93EC0181E0888F9B8D8C8D91
:1003400098131AC0E889F989808185FF15C09FB785
:10035000F894EE89FF896083E889F9898081837048
:10036000806480839FBF81E090E0DF91CF911F91F7
:100370000F91FF90EF900895F62E0B8D10E00F5F18
:100380001F4F0F731127E02E8C8D8E110CC00FB6EE
:1003900007FCFACFE889F989808185FFF5CFCE0186
:1003A0000E947301F1CFEB8DEC0FFD2FF11DE35A8D
:1003B000FF4FF0829FB7F8940B8FEA89FB89808109
:1003C0008062CFCFCF93DF93EC01888D8823B9F083
:1003D000AA89BB89E889F9898C9185FD03C0808150
:1003E00086FD0DC00FB607FCF7CF8C9185FFF2CFCD
:1003F000808185FFEDCFCE010E947301E9CFDF91AF
:10040000CF910895259A2D9A0895CF93DF93FC01FB
:1004100001900020E9F73197AF01481B590BBC014F
:1004200082EC91E00E94F200EC0142E050E069E1D0
:1004300071E082EC91E00E94F2008C0F9D1FDF9131
:10044000CF9108958CE191E00E94050261E084E083
:100450000E94A60060E083E00E94A60060E082E0C7
:100460000E94A6000E94180B80916801909169017A
:100470000E94260B0E948808E5CF8BE391E00E9442
:10048000050260E084E00E94A60061E083E00E9433
:10049000A60060E082E00E94A6000E94180B8091F6
:1004A0006601909167010E94260B0E948808E5CFA3
:1004B0008FE291E00E94050260E084E00E94A600C5
:1004C00060E083E00E94A60061E082E00E94A60056
:1004D0000E94180B80916401909165010E94260B87
:1004E0000E948808E5CF0F931F93E2ECF1E0A0890A
:1004F000B18982E08C93A485B5851C92A685B785C9
:100500008FEC8C93108EA489B58986E08C93A28998
:10051000B3898C9180618C93A289B3898C91886016
:100520008C93A289B3898C9180688C930288F3891B
:10053000E02D80818F7D808384E00E94870083E0AE
:100540000E94870082E00E94870008E611E021E017
:1005500040E850E069E271E088E592E00E945A0DBF
:1005600004E611E021E040E850E065E371E08DE34E
:1005700092E00E945A0D06E611E021E040E850E0CA
:1005800063E471E082E292E00E945A0D1F910F91A4
:1005900008951F920F920FB60F9211242F933F933D
:1005A0008F939F93AF93BF93809195019091960104
:1005B000A0919701B09198013091940123E0230F0D
:1005C0002D3758F50196A11DB11D209394018093FC
:1005D000950190939601A0939701B0939801809113
:1005E000900190919101A0919201B0919301019697
:1005F000A11DB11D8093900190939101A093920150
:10060000B0939301BF91AF919F918F913F912F91A3
:100610000F900FBE0F901F90189526E8230F02969B
:10062000A11DB11DD2CF1F920F920FB60F921124B0
:100630002F933F934F935F936F937F938F939F93EA
:10064000AF93BF93EF93FF9382EC91E00E9473010D
:10065000FF91EF91BF91AF919F918F917F916F919A
:100660005F914F913F912F910F900FBE0F901F9070
:1006700018951F920F920FB60F9211242F938F93FC
:100680009F93EF93FF93E091D201F091D30180818A
:10069000E091D801F091D90182FD1BC09081809139
:1006A000DB018F5F8F732091DC01821741F0E091B5
:1006B000DB01F0E0EE53FE4F958F8093DB01FF915D
:1006C000EF919F918F912F910F900FBE0F901F90E0
:1006D00018958081F4CFE0919B01F0919C0180817D
:1006E000811107C08FEF9FEF90938D0180938C0154
:1006F0000895E0919B01F0919C010580F681E02D29
:1007000080819181F1CFCF93DF93DC011596ED913C
:10071000FC910680F781E02DA489B58986859785AF
:1007200020893189EC013D832C83C089D1899B8349
:100730008A83CF010C9611962D913C911297281720
:10074000390721F41296DC93CE931197158A148AF7
:100750002C9121502C9320918502211157C0A28504
:10076000B3858481958126813781EC013D832C837B
:10077000C681D7819B838A83CF01029611962D91E2
:100780003C9112972817390721F41296DC93CE93E7
:100790001197138612862C9121502C93C689209193
:1007A00083022C1710F4C093830229E02C9FE001F0
:1007B0001124C15ADD4F0980DA81C02DD583C4834D
:1007C0004C815D8157834683AC81BD8113969C9398
:1007D0008E9312979D838C83A689A29FD0011124AA
:1007E000A15ABD4FB387A2878C918F5F8C93A09144
:1007F0006001B0916101968956968C91891730F508
:1008000081E080938402DF91CF910895A091A701A8
:10081000B091A801B787A68714962D913C911597A2
:10082000318B208B1496CD91DC9115979B838A8315
:1008300015969C938E93149786EA91E0958B848B02
:100840008091A6018F5F8093A601D1CF80E0DBCF9E
:100850000FB6F8940F9280918A0190918B010F90BE
:100860000FBE0895809185028F5F80938502089561
:100870000FB6F8940F92FC01928D0F900FBE81E09D
:10088000911180E00895EF92FF920F931F93CF9301
:10089000DF93EC010FB6F8940F921E8D7C0181E17D
:1008A000E80EF11C01E01116D4F08FEF8E8F0F903F
:1008B0000FBE0FB6F8940F921D8D7E0188E0E80EF2
:1008C000F11C01E01116B4F08FEF8D8F0F900FBE69
:1008D000DF91CF911F910F91FF90EF90089589893B
:1008E000882319F3C7010E948303811100938402B6
:1008F0001150D9CF8885882339F3C7010E9483031B
:100900008111009384021150DDCFCF93DF93FC015E
:10091000A085B1858281938124813581EC013D835D
:100920002C83C481D5819B838A8311968D919C9160
:1009300012978E179F0721F41296DC93CE9311978E
:10094000118610868C9181508C938C91DF91CF9180
:1009500008950F931F93CF93DF938C01FB01808148
:100960009181D80113968F3F9807F1F4E801AF8188
:10097000B88512968D919C91139793838283EC0195
:10098000FD83EC83B583A4831396FC93EE931297B7
:1009900011870087F80180818F5F8083DF91CF917D
:1009A0001F910F910895D90112962D913C911397A3
:1009B000E9014881598184179507A8F7DACFFC012E
:1009C00073836283918780874617570790F0421B95
:1009D000530B8485958548175907C8F4BF016E5F8E
:1009E0007F4F80917001909171010E94A90480E075
:1009F00008954217530718F46217730740F4BF01B4
:100A00006E5F7F4F8091720190917301EECF81E014
:100A10000895EF92FF920F931F93CF93DF93EC0112
:100A20008B017A016C857D85600F711F9801A7018C
:100A3000CE010E94DF04811107C0DF91CF911F9189
:100A40000F91FF90EF9008958C859D85080F191FD9
:100A5000E889F989CE010995E5CFEF92FF920F93CE
:100A60001F93CF93DF938C017B01E0917201F09192
:100A700073010580F681E02DC681D781CE010296F3
:100A80000E9485048A8982FF0FC0A701B801CE01A8
:100A90000E940905E889F989CE01DF91CF911F9164
:100AA0000F91FF90EF9009948E7F8A8BF3CFE091A6
:100AB0007201F0917301808181110DC080917001EC
:100AC000909171019093730180937201F093710181
:100AD000E093700108950580F681E02D6FEF7FEFC0
:100AE000808191810E942D05E2CFFF920F931F9389
:100AF000CF93DF93EC01F62E00918A0110918B01C8
:100B0000809160019091610102960E948504CF3F1F
:100B1000DC07E9F5FF20D9F1E0918902F0918A0222
:100B2000A0916001B09161011596FC93EE9314972A
:100B3000A0916001B09161018481958117969C9389
:100B40008E9316978091600190916101A481B58187
:100B5000029613969C938E931297809160019091C8
:100B60006101029695838483E0916001F0916101B7
:100B700088E892E093878287809188028F5F8093D4
:100B80008802DF91CF911F910F91FF900895C00FC0
:100B9000D11FE0916001F0916101D383C283609124
:100BA000600170916101C017D10768F480919901CB
:100BB00090919A016E5F7F4FDF91CF911F910F91BE
:100BC000FF900C94A90480919B0190919C016E5F11
:100BD0007F4F0E94A90480918C0190918D01C817CC
:100BE000D90778F6D0938D01C0938C01CACFFC0150
:100BF0000396928381832FEF3FEF34832383968381
:100C0000858390878783108208950F920FB6F8949A
:100C10000F921F9211242F923F924F925F926F92E8
:100C20007F928F929F92AF92BF92CF92DF92EF927C
:100C3000FF920F931F932F933F934F935F936F9365
:100C40007F938F939F93AF93BF93CF93DF93EF9354
:100C5000FF93A0916001B09161010DB60D920EB6A7
:100C60000D9213BE809185028111F9C080918A0195
:100C700090918B01019690938B0180938A0100974C
:100C800081F520919B0130919C01409199015091F7
:100C90009A0150939C0140939B0130939A012093B9
:100CA000990120916F012F5F20936F01E0919B01CB
:100CB000F0919C012081211107C02FEF3FEF30936D
:100CC0008D0120938C010DC0E0919B01F0919C015E
:100CD0000580F681E02D2081318130938D012093B4
:100CE0008C0120918C0130918D018217930710F4B3
:100CF00020E0A1C020E039E0D32EE0919B01F091EB
:100D00009C013081311107C08FEF9FEF90938D01CF
:100D100080938C0190C0E0919B01F0919C01058033
:100D2000F681E02D0680F781E02D42815381841702
:100D3000950728F450938D0140938C017CC0A285C7
:100D4000B3854481558166817781EA017D836C8317
:100D500066817781EB015B834A83AF014E5F5F4F12
:100D600011960D911C9112970417150721F41296F4
:100D70007C936E931197138612863C9131503C936D
:100D8000A489B5891097F9F066857785008911895E
:100D9000EB011D830C8300891189E8017B836A8341
:100DA0001196ED90FC901297BF01645F7F4FE6169D
:100DB000F70621F412961C930E931197158A148A44
:100DC0003C9131503C93A689309183023A1710F43C
:100DD000A0938302DA9ED0011124A15ABD4F11962F
:100DE0000D90BC91A02DB583A48314966D917C9138
:100DF00015977783668314966D917C911597EB0117
:100E00005B834A8315965C934E93149746894D9D58
:100E1000D0011124A15ABD4FB387A2873C913F5FF7
:100E20003C93E0916001F09161013689341708F03C
:100E300064CF21E062CFE0916001F0916101E68929
:100E4000D9E0ED9FF0011124E15AFD4F80818230FD
:100E500008F021E08091840281110EC00AC08091C7
:100E60006A0190916B01019690936B0180936A01E6
:100E700068C0222309F465C080918502882321F08F
:100E800081E0809384025DC010928402A091600191
:100E9000B0916101E0916001F09161012D913C916F
:100EA0008789908D82179307A8F0809160019091B7
:100EB00061018091600190916101259A2D9A2FEF37
:100EC00087EA91E6215080409040E1F700C00000A1
:100ED0001D9AF5CF2091830289E001C02150422F55
:100EE00050E0849FF001859FF00D1124E15AFD4FE1
:100EF0009081992399F3A181B28112966D917C9191
:100F000072836183289FC00111248E599D4F6817F9
:100F1000790721F4858196819283818389E0849F7A
:100F2000F001859FF00D1124E15AFD4F0180F281FF
:100F3000E02D8681978190936101809360012093D9
:100F40008302A0916001B0916101CD91CDBFDD918F
:100F5000DEBFFF91EF91DF91CF91BF91AF919F9154
:100F60008F917F916F915F914F913F912F911F9141
:100F70000F91FF90EF90DF90CF90BF90AF909F9038
:100F80008F907F906F905F904F903F902F901F9029
:100F90000F900FBE0F9008950F920FB6F8940F9216
:100FA0001F9211242F923F924F925F926F927F92E5
:100FB0008F929F92AF92BF92CF92DF92EF92FF9269
:100FC0000F931F932F933F934F935F936F937F9351
:100FD0008F939F93AF93BF93CF93DF93EF93FF9341
:100FE000A0916001B09161010DB60D920EB60D9207
:100FF00080918502882321F081E0809384025DC086
:1010000010928402A0916001B0916101E0916001B1
:10101000F09161012D913C918789908D8217930702
:10102000A8F08091600190916101809160019091A0
:101030006101259A2D9A2FEF87EA91E62150804091
:101040009040E1F700C000001D9AF5CF2091830287
:1010500089E001C02150422F50E0849FF001859F1C
:10106000F00D1124E15AFD4F9081992399F3A1814C
:10107000B28112966D917C9172836183289FC00129
:1010800011248E599D4F6817790721F48581968127
:101090009283818389E0849FF001859FF00D112464
:1010A000E15AFD4F0180F281E02D86819781909376
:1010B00061018093600120938302A0916001B0914F
:1010C0006101CD91CDBFDD91DEBFFF91EF91DF9149
:1010D000CF91BF91AF919F918F917F916F915F91D0
:1010E0004F913F912F911F910F91FF90EF90DF90C3
:1010F000CF90BF90AF909F908F907F906F905F90B8
:101100004F903F902F901F900F900FBE0F9008951B
:101110000F931F93CF93DF930FB6F8940F92C09164
:101120006001D09161018E010E5F1F4FC8010E94C6
:1011300085048C899D89892B21F0CE010C960E9413
:101140008504E0918902F0918A02FD83EC83848119
:1011500095819F838E83A481B58113961C930E93F2
:1011600012971583048388E892E09B878A87809191
:1011700088028F5F809388028FA1813009F41FA2BB
:101180000F900FBE80918702882339F00FB6F89434
:101190000F920E946B030F900FBE8091600190919F
:1011A0006101C817D90731F480918702882339F08B
:1011B0000E94CC07DF91CF911F910F9108959091DC
:1011C000880280918602981305C0109261011092E6
:1011D0006001F0CF80918502882321F081E0809327
:1011E0008402E8CF10928402A0916001B091610165
:1011F000E0916001F09161012D913C918789908D82
:1012000082179307A8F0809160019091610180910D
:101210006001909161010E9402022FEF87EA91E63E
:10122000215080409040E1F700C000001D9AF5CFAA
:101230002091830289E0422F50E0849FF001859F36
:10124000F00D1124E15AFD4F9081992339F1A181CC
:10125000B28112966D917C9172836183289FC00147
:1012600011248E599D4F6817790721F48581968145
:101270009283818389E0849FF001859FF00D112482
:10128000E15AFD4F0180F281E02D86819781909394
:10129000610180936001209383028CCF2150CBCFDA
:1012A0008F929F92BF92CF92DF92EF92FF920F9315
:1012B0001F93CF93DF930FB6F8940F92809185021E
:1012C00081508093850280918502882379F080E0A7
:1012D0000F900FBEDF91CF911F910F91FF90EF9074
:1012E000DF90CF90BF909F908F900895809186025D
:1012F000882369F3E090AB01F090AC01F0E0E0E00E
:1013000039E041E08091A60181115EC0EF2B11F020
:101310000E946B03E0906A01F0906B01E114F1040C
:1013200009F47DC189E0D82ECC24C3940FEF1FEFC0
:1013300080918502811161C1C0918A01D0918B0198
:101340004E018FEF881A980A90928B0180928A0141
:1013500081149104B9F480919B0190919C0120919A
:10136000990130919A0130939C0120939B019093B5
:101370009A018093990180916F018F5F80936F0133
:101380000E946B0380918C0190918D01B12C881685
:10139000990608F026C1E0916001F0916101E689AB
:1013A000DE9EF0011124E15AFD4F8081823010F061
:1013B000BB24B39480918402811103C0BB2009F443
:1013C00025C1C092840222C1D7011696ED91FC91ED
:1013D000A489B5896685778580899189EB019D838C
:1013E0008C8380899189EC017B836A83BF01645F70
:1013F0007F4F11960D911C9112970617170721F434
:1014000012969C938E931197158A148A8C91815011
:101410008C93A285B3858481958166817781EC0167
:101420007D836C8366817781EB019B838A83CF0107
:10143000029611960D911C9112970817190721F425
:1014400012967C936E931197138612862C912150DD
:101450002C93A689209183022A1710F4A09383026B
:101460003A9FD0011124A15ABD4F11960D90BC9105
:10147000A02DB583A48314966D917C9115977783E5
:10148000668314966D917C911597EB019B838A83FB
:1014900015969C938E9314979689939FD00111244F
:1014A000A15ABD4FB387A2878C918F5F8C93A09177
:1014B0006001B091610156968C91891708F022CF96
:1014C000409384021FCFE0919B01F0919C01058025
:1014D000F681E02D0680F781E02D828193818816C8
:1014E000990628F490938D0180938C0154CFC28586
:1014F000D3858481958126813781DC0115963C93C3
:101500002E93149726813781D90113969C938E933D
:101510001297CF01029649815A814817590711F451
:101520003A83298313861286288121502883A4892F
:10153000B5891097F9F02685378540895189E901E9
:101540005D834C8340895189EA013B832A8311964C
:101550006D917C9112979F01245F3F4F6217730733
:1015600021F412965C934E931197158A148A2C914C
:1015700021502C93A689209183022A1710F4A0935E
:101580008302DA9ED0011124A15ABD4F11960D900D
:10159000BC91A02DB583A48314962D913C911597F1
:1015A0003783268314962D913C911597E9019B83EF
:1015B0008A8315969C938E93149796899D9DD0014E
:1015C0001124A15ABD4FB387A2878C918F5F8C9352
:1015D000E0916001F09161018689891710F4BB24C4
:1015E000B394E0919B01F0919C01808181116BCFBC
:1015F00010938D0100938C01CECE80916A01909161
:101600006B01019690936B0180936A01D1E0ED1A12
:10161000F10809F08DCE10926B0110926A01809151
:101620008402882309F453CE0E94CC0781E050CE77
:101630000E94320460E08FE190E00E9475050E94F4
:101640005009811102C00E94CC0708950F931F9387
:10165000CF93DF93EC0180916001909161018C1731
:101660009D0709F455C0209709F452C00FB6F894AD
:101670000F928A859B858858924009F047C08C89D3
:101680009D89E1E0863A9E0709F440C0892BF1F577
:101690008E010E5F1F4FC8010E948504AE898091A4
:1016A00083028A1710F4A093830229E02A9FD001B5
:1016B0001124A15ABD4F11960D90BC91A02DBD8350
:1016C000AC8314968D919C9115979F838E8314966D
:1016D0008D919C911597FC011383028315961C93A1
:1016E0000E9314979E89929FF0011124E15AFD4FA9
:1016F000FB87EA8780818F5F8083E0916001F091B2
:1017000061018689891710F40E94CC070F900FBEE3
:10171000DF91CF911F910F910895CF93DF930097A1
:1017200051F0EC010E943204CE010E946810DF915A
:10173000CF910C945009DF91CF910895CF93DF930F
:1017400000D000D01F92CDB7DEB7E0917201F091CA
:1017500073011081F12CE12C112329F00580F68111
:10176000E02DE080F1800E9432040E9428046C0188
:1017700080916D0190916E01C816D90608F085C060
:101780000E945705D0926E01C0926D010E945009CF
:1017900000918801109189010FB6F8940F92D80139
:1017A0005A96FC905A97FF2009F430C15C964C91F0
:1017B0005C97442301F150E016968D919C91179708
:1017C000840F951F17969C938E93169714962D91C0
:1017D0003C9115978217930738F08D919C91119742
:1017E00017969C938E931697F80166817781CE01A8
:1017F00001960E94F710FA94D8015A96FC925A97D3
:1018000018968C91882339F0C80108960E948303AA
:1018100081110E94CC070F900FBED980D7FCB8CFA2
:101820000C811D81D8011A968D919C91892B21F0F4
:10183000C80102960E9485040E9428047C018091C0
:101840006D0190916E01E816F90610F40E9457059B
:10185000F0926E01E0926D01EFEFED0DE93008F0CE
:1018600097CF0E2E000CFF0BE45CF34FD80152967D
:101870008C9152970C94F110BF0CBF0C020DEA0C26
:10188000FC0CBF0CBF0C020DEA0CD0926E01C09292
:101890006D01112351F0CE14DF0470F00E94500945
:1018A000B601C7010E942D0573CFE0917001F09140
:1018B0007101808161E0811160E0009188011091E7
:1018C00089010FB6F8940F92D8015D968C915D97BF
:1018D0008F3F11F45D961C92F801868D8F3F09F4BD
:1018E000168E0F900FBED8015A968C915A9781117F
:1018F0003CC05296ED91FC91A0916001B0916101C4
:101900001F96FC93EE931E97A0916001B091610128
:101910008481958151969C938E935097809160011C
:1019200090916101A481B5810C9613969C938E933E
:10193000129780916001909161010C969583848348
:10194000E0916001F0916101C8014196958B848B13
:10195000F80181898F5F818BC7018C199D096623EE
:1019600011F08FEF9FEF0E947505C8010E9443049C
:101970000E94500981110CCF0E94CC0709CF8160D1
:10198000F801828BCA80DB80648575856C0D7D1DB6
:101990009601A701C8010E94DF04882309F4F8CE4C
:1019A000D80152968C91529782FF10C01C966D916F
:1019B0007C916C0D7D1DA701C8010E940905D8010D
:1019C0005096ED91FC91C8010995E2CE8E7FF80109
:1019D000828BF5CF816052968C9352976A817B817E
:1019E0001D967C936E931C976E0D7F1D9701A7012A
:1019F000C8010E94DF04CCCE81FD04C0C8010E9452
:101A00008D0BC6CE8E7FF801828BC2CE0F900FBE9B
:101A10009CCE00E010E080916C0181110CC080919F
:101A20005F02823010F00E94CC070115110599F376
:101A30000E946601F0CF0FB6F8940F92E091A201D8
:101A4000F091A301C681D781CE0102960E94850440
:101A50008091860281508093860280916C01815032
:101A600080936C010F900FBE8F89988D0E948D0B13
:101A7000CE010E948D0BCFCFCF93DF93EC010E945C
:101A80003204CE010E94CC0FEC010E945009209735
:101A900069F40E9402022FEF80E792E0215080401B
:101AA0009040E1F700C000001D9AF5CFCE01DF9114
:101AB000CF9108957F928F929F92AF92BF92CF92D3
:101AC000DF92EF92FF920F931F93CF93DF93982EA5
:101AD000A92E762E872E7A01B22ECA010E943C0DC5
:101AE0006C01892B09F4EAC088E290E00E943C0D69
:101AF000EC01892B09F4DFC088E2DE011D928A9592
:101B0000E9F7D88ECF8AA70165EA70E0C6010E9486
:101B10000011B1E0EB1AF108EF89F88DEE0DFF1D11
:101B2000672D782DCE0149969B01285F3F4FDB0141
:101B30004D91BD01DC014D93CD01AB0141505109E7
:101B4000DA014C91442319F06217730781F718A248
:101B5000BE8AB9A21B861A861D8A1C8AD987C887A5
:101B600084E090E08B1991099D878C87DB8BCA8B71
:101B70009082DF011197AC9211971C92119780E827
:101B80008C9311971C9257971C9211971C92B397A4
:101B9000F983E883F801D183C0830FB6F8940F92DC
:101BA000809186028F5F8093860280916001909180
:101BB0006101892B09F091C0D0936101C09360014C
:101BC00080918602813081F58FE592E00E94F705D1
:101BD00088E692E00E94F70581E792E00E94F7050F
:101BE0008AE792E00E94F70588EB91E00E94F705F2
:101BF0008FEA91E00E94F70586EA91E00E94F705DE
:101C00008DE991E00E94F70588E892E00E94F705CF
:101C100088EB91E090939C0180939B018FEA91E087
:101C200090939A01809399018091C1018F5F809375
:101C3000C101AE89809183028A1710F4A0938302B8
:101C400029E02A9FD0011124A15ABD4F11960D9071
:101C5000BC91A02DBD83AC8314968D919C9115975A
:101C60009F838E831496ED91FC911597CE01029679
:101C70009383828315969C938E931497EE89E29FAB
:101C8000F0011124E15AFD4FFB87EA8780818F5FC5
:101C900080830F900FBE80918702882351F0E091DE
:101CA0006001F091610196898E89981710F40E9465
:101CB000CC0781E004C0C6010E948D0B8FEFDF913D
:101CC000CF911F910F91FF90EF90DF90CF90BF9039
:101CD000AF909F908F907F9008958091870281119F
:101CE000A3CFE0916001F091610196898E898917F7
:101CF00008F49ACFD0936101C093600195CF0E9400
:101D000005061895789484B5826084BD84B5816099
:101D100084BD85B5826085BD85B5816085BD8091B6
:101D20006E00816080936E0010928100809181002E
:101D30008260809381008091810081608093810026
:101D4000809180008160809380008091B1008460E8
:101D50008093B1008091B00081608093B000809149
:101D60007A00846080937A0080917A008260809308
:101D70007A0080917A00816080937A0080917A0065
:101D8000806880937A001092C10020910501309103
:101D900006018FEF98E0821B930B909302018093D2
:101DA00001010E9473020EE811E020E040EC50E0D7
:101DB00062E571E089E09DE00E945A0D813009F0F2
:101DC000B3C00FB6F8940F92809188019091890169
:101DD000892B09F04FC08DE791E00E94F70584E759
:101DE00091E00E94F7058DE791E090937301809355
:101DF000720184E791E0909371018093700181E515
:101E000090E00E943C0DEC01009781F14F96998380
:101E100088838AE08B8F85E08C8F0FB6F8940F92C1
:101E2000888199812B8D4C8DBC01249F600D711D83
:101E300011247D836C831A8E9B838A832150330BFC
:101E4000429FB001439F700D1124860F971F9F83FF
:101E50008E838FEF8D8F8E8FCE0108960E94F705AF
:101E6000CE0141960E94F7050F900FBED0938901D5
:101E7000C09388010F900FBE8091880190918901D5
:101E8000892B09F451C006E811E023E045E550E054
:101E900067E571E08EE99BE00E945A0D813009F000
:101EA00043C0F8942FEF3FEF30938D0120938C01C6
:101EB0008093870210928B0110928A01A89588E185
:101EC00090EC0FB6F894A895809360000FBE9093A5
:101ED0006000A0916001B0916101CD91CDBFDD9115
:101EE000DEBFFF91EF91DF91CF91BF91AF919F91B5
:101EF0008F917F916F915F914F913F912F911F91A2
:101F00000F91FF90EF90DF90CF90BF90AF909F9098
:101F10008F907F906F905F904F903F902F901F9089
:101F20000F900FBE0F900895809100010E947302E0
:101F3000C0E0D0E02097F1F30E946601FBCFE2EC15
:101F4000F1E01382128288EE93E0A0E0B0E0848397
:101F50009583A683B7838BE091E09183808385ECA2
:101F600090E09587848784EC90E09787868780EC63
:101F700090E0918B808B81EC90E0938B828B82EC54
:101F800090E0958B848B86EC90E0978B868B118EFE
:101F9000128E138E148E08950F931F93CF93DF9399
:101FA0008230910510F482E090E0E0919302F0918C
:101FB000940230E020E0B0E0A0E0309799F42115E1
:101FC000310509F44AC0281B390B24303105D8F5F6
:101FD0008A819B816115710589F1FB01938382835D
:101FE000FE0111C0408151810281138148175907B8
:101FF000E0F04817590799F4109761F012960C9386
:10200000129713961C933296CF01DF91CF911F91B7
:102010000F9108950093930210939402F4CF211529
:10202000310551F04217530738F0A901DB019A013D
:10203000BD01DF01F801C1CFEF01F9CF9093940208
:1020400080939302CDCFFE01E20FF31F8193919312
:102050002250310939832883D7CF209191023091C2
:102060009202232B41F4209103013091040130931B
:1020700092022093910220910101309102012115D9
:10208000310541F42DB73EB740910501509106014D
:10209000241B350BE0919102F0919202E217F307B5
:1020A000A0F42E1B3F0B2817390778F0AC014E5FC8
:1020B0005F4F2417350748F04E0F5F1F5093920271
:1020C00040939102819391939FCFF0E0E0E09CCF09
:1020D000CF93DF930097E9F0FC01329713821282CD
:1020E000A0919302B0919402ED0130E020E01097AE
:1020F000A1F420813181820F931F209191023091B0
:1021000092022817390709F061C0F0939202E09318
:102110009102DF91CF910895EA01CE17DF07E8F52C
:102120004A815B819E0141155105B1F7E901FB83AD
:10213000EA8349915991C40FD51FEC17FD0761F44B
:10214000808191810296840F951FE901998388838C
:10215000828193819B838A83F0E0E0E012968D91E7
:102160009C9113970097B9F52D913C911197CD0152
:102170000296820F931F20919102309192022817AC
:10218000390739F6309751F5109294021092930264
:10219000B0939202A0939102BCCFD383C2834081BB
:1021A0005181840F951FC817D90761F44E5F5F4FA7
:1021B00088819981480F591F518340838A819B816F
:1021C000938382832115310509F0B0CFF0939402F7
:1021D000E09393029ECFFD01DC01C0CF13821282F7
:1021E000D7CFEE0FFF1F0590F491E02D0994FB016E
:1021F000DC0102C001900D9241505040D8F7089583
:10220000DC0101C06D9341505040E0F70895F8940F
:02221000FFCFFE
:1022120003000095028000000000009501F2001FFB
:1022220001E20150012E0142010D0A004C656420B9
:102232007665726D656C686F006163656E64655684
:1022420065726465006163656E6465416D617265A6
:102252006C6F006163656E64655665726D656C686E
:102262006F0049444C4500546D7220537663000060
:00000001FF
